{
  "_format": "hh-sol-artifact-1",
  "contractName": "Referral",
  "sourceName": "contracts/Referral.sol",
  "abi": [
    {
      "inputs": [
        {
          "internalType": "address",
          "name": "initialOwner",
          "type": "address"
        }
      ],
      "stateMutability": "nonpayable",
      "type": "constructor"
    },
    {
      "inputs": [],
      "name": "CannotReferSelf",
      "type": "error"
    },
    {
      "inputs": [],
      "name": "InvalidFeeShare",
      "type": "error"
    },
    {
      "inputs": [],
      "name": "InvalidKOLAddress",
      "type": "error"
    },
    {
      "inputs": [
        {
          "internalType": "string",
          "name": "code",
          "type": "string"
        }
      ],
      "name": "InvalidReferralCode",
      "type": "error"
    },
    {
      "inputs": [],
      "name": "NotKOL",
      "type": "error"
    },
    {
      "inputs": [],
      "name": "NotPogPredict",
      "type": "error"
    },
    {
      "inputs": [
        {
          "internalType": "string",
          "name": "code",
          "type": "string"
        }
      ],
      "name": "ReferralCodeTaken",
      "type": "error"
    },
    {
      "inputs": [],
      "name": "ReferrerAlreadySet",
      "type": "error"
    },
    {
      "anonymous": false,
      "inputs": [
        {
          "indexed": false,
          "internalType": "uint256",
          "name": "oldShare",
          "type": "uint256"
        },
        {
          "indexed": false,
          "internalType": "uint256",
          "name": "newShare",
          "type": "uint256"
        }
      ],
      "name": "DefaultReferralFeeShareUpdated",
      "type": "event"
    },
    {
      "anonymous": false,
      "inputs": [
        {
          "indexed": true,
          "internalType": "address",
          "name": "kol",
          "type": "address"
        },
        {
          "indexed": false,
          "internalType": "uint256",
          "name": "feeShare",
          "type": "uint256"
        }
      ],
      "name": "KOLAdded",
      "type": "event"
    },
    {
      "anonymous": false,
      "inputs": [
        {
          "indexed": true,
          "internalType": "address",
          "name": "kol",
          "type": "address"
        }
      ],
      "name": "KOLRemoved",
      "type": "event"
    },
    {
      "anonymous": false,
      "inputs": [
        {
          "indexed": true,
          "internalType": "address",
          "name": "previousOwner",
          "type": "address"
        },
        {
          "indexed": true,
          "internalType": "address",
          "name": "newOwner",
          "type": "address"
        }
      ],
      "name": "OwnershipTransferStarted",
      "type": "event"
    },
    {
      "anonymous": false,
      "inputs": [
        {
          "indexed": true,
          "internalType": "address",
          "name": "previousOwner",
          "type": "address"
        },
        {
          "indexed": true,
          "internalType": "address",
          "name": "newOwner",
          "type": "address"
        }
      ],
      "name": "OwnershipTransferred",
      "type": "event"
    },
    {
      "anonymous": false,
      "inputs": [
        {
          "indexed": true,
          "internalType": "address",
          "name": "oldContract",
          "type": "address"
        },
        {
          "indexed": true,
          "internalType": "address",
          "name": "newContract",
          "type": "address"
        }
      ],
      "name": "PogPredictContractSet",
      "type": "event"
    },
    {
      "anonymous": false,
      "inputs": [
        {
          "indexed": true,
          "internalType": "address",
          "name": "user",
          "type": "address"
        },
        {
          "indexed": false,
          "internalType": "string",
          "name": "code",
          "type": "string"
        }
      ],
      "name": "ReferralCodeSet",
      "type": "event"
    },
    {
      "anonymous": false,
      "inputs": [
        {
          "indexed": true,
          "internalType": "address",
          "name": "referrer",
          "type": "address"
        },
        {
          "indexed": false,
          "internalType": "uint256",
          "name": "amount",
          "type": "uint256"
        },
        {
          "indexed": false,
          "internalType": "uint256",
          "name": "newTotal",
          "type": "uint256"
        }
      ],
      "name": "ReferralEarningsUpdated",
      "type": "event"
    },
    {
      "anonymous": false,
      "inputs": [
        {
          "indexed": true,
          "internalType": "address",
          "name": "user",
          "type": "address"
        },
        {
          "indexed": true,
          "internalType": "address",
          "name": "referrer",
          "type": "address"
        }
      ],
      "name": "ReferrerSet",
      "type": "event"
    },
    {
      "inputs": [],
      "name": "acceptOwnership",
      "outputs": [],
      "stateMutability": "nonpayable",
      "type": "function"
    },
    {
      "inputs": [
        {
          "internalType": "address",
          "name": "_kol",
          "type": "address"
        },
        {
          "internalType": "uint256",
          "name": "_feeShare",
          "type": "uint256"
        }
      ],
      "name": "addKOL",
      "outputs": [],
      "stateMutability": "nonpayable",
      "type": "function"
    },
    {
      "inputs": [
        {
          "internalType": "address",
          "name": "",
          "type": "address"
        }
      ],
      "name": "addressToReferralCode",
      "outputs": [
        {
          "internalType": "string",
          "name": "",
          "type": "string"
        }
      ],
      "stateMutability": "view",
      "type": "function"
    },
    {
      "inputs": [
        {
          "internalType": "address",
          "name": "",
          "type": "address"
        }
      ],
      "name": "customReferralFeeShares",
      "outputs": [
        {
          "internalType": "uint256",
          "name": "",
          "type": "uint256"
        }
      ],
      "stateMutability": "view",
      "type": "function"
    },
    {
      "inputs": [],
      "name": "defaultReferralFeeShare",
      "outputs": [
        {
          "internalType": "uint256",
          "name": "",
          "type": "uint256"
        }
      ],
      "stateMutability": "view",
      "type": "function"
    },
    {
      "inputs": [
        {
          "internalType": "address",
          "name": "_kol",
          "type": "address"
        }
      ],
      "name": "getReferralFeeShare",
      "outputs": [
        {
          "internalType": "uint256",
          "name": "",
          "type": "uint256"
        }
      ],
      "stateMutability": "view",
      "type": "function"
    },
    {
      "inputs": [
        {
          "internalType": "address",
          "name": "",
          "type": "address"
        }
      ],
      "name": "isKOL",
      "outputs": [
        {
          "internalType": "bool",
          "name": "",
          "type": "bool"
        }
      ],
      "stateMutability": "view",
      "type": "function"
    },
    {
      "inputs": [
        {
          "internalType": "address",
          "name": "_referrer",
          "type": "address"
        }
      ],
      "name": "isValidReferrer",
      "outputs": [
        {
          "internalType": "bool",
          "name": "",
          "type": "bool"
        }
      ],
      "stateMutability": "view",
      "type": "function"
    },
    {
      "inputs": [],
      "name": "owner",
      "outputs": [
        {
          "internalType": "address",
          "name": "",
          "type": "address"
        }
      ],
      "stateMutability": "view",
      "type": "function"
    },
    {
      "inputs": [],
      "name": "pendingOwner",
      "outputs": [
        {
          "internalType": "address",
          "name": "",
          "type": "address"
        }
      ],
      "stateMutability": "view",
      "type": "function"
    },
    {
      "inputs": [],
      "name": "pogPredictContract",
      "outputs": [
        {
          "internalType": "address",
          "name": "",
          "type": "address"
        }
      ],
      "stateMutability": "view",
      "type": "function"
    },
    {
      "inputs": [
        {
          "internalType": "string",
          "name": "",
          "type": "string"
        }
      ],
      "name": "referralCodeToAddress",
      "outputs": [
        {
          "internalType": "address",
          "name": "",
          "type": "address"
        }
      ],
      "stateMutability": "view",
      "type": "function"
    },
    {
      "inputs": [
        {
          "internalType": "address",
          "name": "",
          "type": "address"
        }
      ],
      "name": "referralCount",
      "outputs": [
        {
          "internalType": "uint256",
          "name": "",
          "type": "uint256"
        }
      ],
      "stateMutability": "view",
      "type": "function"
    },
    {
      "inputs": [
        {
          "internalType": "address",
          "name": "",
          "type": "address"
        }
      ],
      "name": "referralEarnings",
      "outputs": [
        {
          "internalType": "uint256",
          "name": "",
          "type": "uint256"
        }
      ],
      "stateMutability": "view",
      "type": "function"
    },
    {
      "inputs": [
        {
          "internalType": "address",
          "name": "_kol",
          "type": "address"
        }
      ],
      "name": "removeKOL",
      "outputs": [],
      "stateMutability": "nonpayable",
      "type": "function"
    },
    {
      "inputs": [],
      "name": "renounceOwnership",
      "outputs": [],
      "stateMutability": "nonpayable",
      "type": "function"
    },
    {
      "inputs": [
        {
          "internalType": "uint256",
          "name": "_share",
          "type": "uint256"
        }
      ],
      "name": "setDefaultReferralFeeShare",
      "outputs": [],
      "stateMutability": "nonpayable",
      "type": "function"
    },
    {
      "inputs": [
        {
          "internalType": "address",
          "name": "_pogPredict",
          "type": "address"
        }
      ],
      "name": "setPogPredictContract",
      "outputs": [],
      "stateMutability": "nonpayable",
      "type": "function"
    },
    {
      "inputs": [
        {
          "internalType": "string",
          "name": "_code",
          "type": "string"
        }
      ],
      "name": "setReferralCode",
      "outputs": [],
      "stateMutability": "nonpayable",
      "type": "function"
    },
    {
      "inputs": [
        {
          "internalType": "string",
          "name": "_referralCode",
          "type": "string"
        }
      ],
      "name": "setReferrer",
      "outputs": [],
      "stateMutability": "nonpayable",
      "type": "function"
    },
    {
      "inputs": [
        {
          "internalType": "address",
          "name": "newOwner",
          "type": "address"
        }
      ],
      "name": "transferOwnership",
      "outputs": [],
      "stateMutability": "nonpayable",
      "type": "function"
    },
    {
      "inputs": [
        {
          "internalType": "address",
          "name": "_referrer",
          "type": "address"
        },
        {
          "internalType": "uint256",
          "name": "_amount",
          "type": "uint256"
        }
      ],
      "name": "updateReferralEarnings",
      "outputs": [],
      "stateMutability": "nonpayable",
      "type": "function"
    },
    {
      "inputs": [
        {
          "internalType": "address",
          "name": "",
          "type": "address"
        }
      ],
      "name": "userReferrer",
      "outputs": [
        {
          "internalType": "address",
          "name": "",
          "type": "address"
        }
      ],
      "stateMutability": "view",
      "type": "function"
    }
  ],
  "bytecode": "0x60803461007b57601f61128438819003918201601f19168301916001600160401b038311848410176100805780849260209460405283398101031261007b57516001600160a01b038116810361007b5761006c9061005c33610096565b60016002556101f4600355610096565b60405161119f90816100e58239f35b600080fd5b634e487b7160e01b600052604160045260246000fd5b60018060a01b031990816001541660015560005460018060a01b038092168093821617600055167f8be0079c531659141344cd1fd0a4f28419497f9722a3daafe3b4186f6b6457e0600080a356fe60406080815260048036101561001457600080fd5b600091823560e01c918263040569aa14610eb65782635844c6bf14610e1657826362ca09be14610d63578263715018a614610cfe57826379ba509714610c3e5782637c3fcc3814610c0357826386ec3e3d146109465782638da5cb5b1461091e5782639c2a4cce146108e0578263a3454c2414610830578263b07be4801461066e578263b868e7a114610573578263b95f12731461053c578263babe64fc1461050f578263bc9a9ebf14610376578263c07b528a1461033e578263d52f199f146102fb578263d6f923721461023c57508163db74559b14610204578163e30c3978146101db578163e63fc2d7146101b2578163ee3bde221461018f575063f2fde38b1461012057600080fd5b3461018c57602036600319011261018c57610139610f5b565b610141611055565b600180546001600160a01b0319166001600160a01b0392831690811790915582549091167f38d16b8cac22d99fc7c124b9cd0de2d3fa1faef420bfe791d8c362d765e227008380a380f35b80fd5b9050346101ae57816003193601126101ae576020906003549051908152f35b5080fd5b9050346101ae57816003193601126101ae57600b5490516001600160a01b039091168152602090f35b9050346101ae57816003193601126101ae5760015490516001600160a01b039091168152602090f35b9050346101ae5760203660031901126101ae5760209181906001600160a01b0361022c610f5b565b1681526008845220549051908152f35b90833461018c57602092836003193601126101ae5780359167ffffffffffffffff918284116101ae57366023850112156101ae57838101359283116102e85750835191610292601f8201601f1916870184610ffa565b8083528583019336602483830101116102e457908060248893018637830101526102c3835192839251928391611032565b6009908201908152819003830190205490516001600160a01b039091168152f35b8280fd5b634e487b7160e01b825260419052602490fd5b8382346101ae5760203660031901126101ae576020916103359082906001600160a01b03610327610f5b565b168152600a85522054610fc0565b15159051908152f35b8382346101ae5760203660031901126101ae5760209181906001600160a01b03610366610f5b565b1681526007845220549051908152f35b909150346102e45761038736610f76565b92906103916110d5565b83156104d4573385526006602052818520546001600160a01b0390811661047e578251858382376020818781016009815203019020541693841561045e575050338314610451573384526006602090815281852080546001600160a01b0319168517905583855260089052832080549091600019821461043e57506001019055337f5f7165288eef601591cf549e15ff19ef9060b7f71b9c115be946fa1fe7ebf68a8380a3600160025580f35b634e487b7160e01b855260119052602484fd5b5163dc33424560e01b8152fd5b91516380d04fa360e01b815292839261047a92909184016110ad565b0390fd5b825162461bcd60e51b8152602081860152602a60248201527f526566657272657220616c72656164792073657420616e642063616e6e6f742060448201526918994818da185b99d95960b21b6064820152608490fd5b815162461bcd60e51b81526020818501526015602482015274496e76616c696420726566657272616c20636f646560581b6044820152606490fd5b8382346101ae5760203660031901126101ae57602090610535610530610f5b565b611129565b9051908152f35b909150346102e45760203660031901126102e45760209282916001600160a01b03610565610f5b565b168252845220549051908152f35b8382346101ae576020918260031936011261018c576001600160a01b03610598610f5b565b168152600a83528181208383518381949084546105b481610fc0565b9182855285850196600192838116908160001461064b575060011461060e575b505050506105e492500383610ffa565b6106008351948593818552519283809286015285850190611032565b601f01601f19168101030190f35b815285812095935091905b8183106106335750889450508201016105e48880806105d4565b85548884018501529485019487945091830191610619565b93505050506105e494925060ff19168552151560051b82010186928880806105d4565b8390346101ae57826003193601126101ae57610688610f5b565b600b54602494918535916001600160a01b0391908216330361082057169283156107de57811561079c5783855260206005815260ff84872054161561076557848652600781528386205491838301928381116107535783106107225750859650847f98680157b1f1536039d84db2228e62a0de0eebd991c5875a2a8634a7a350419d9596526007815281848820558351928352820152a280f35b600e8860649387519362461bcd60e51b85528401528201526d4f766572666c6f7720636865636b60901b6044820152fd5b634e487b7160e01b8852601182528888fd5b835162461bcd60e51b81529182015260148187015273149959995c9c995c881b5d5cdd0818994812d3d360621b6044820152606490fd5b606490601787602086519362461bcd60e51b85528401528201527f416d6f756e74206d75737420626520706f7369746976650000000000000000006044820152fd5b606490601887602086519362461bcd60e51b85528401528201527f496e76616c6964207265666572726572206164647265737300000000000000006044820152fd5b50505051639e90230d60e01b8152fd5b909150346102e45760203660031901126102e45761084c610f5b565b90610855611055565b6001600160a01b039182169283156108ab575050600b54826bffffffffffffffffffffffff60a01b821617600b55167fb9a5ae82b24081f0e12c70596e13817313fd5a0926671fc26210bd4cf838c1248380a380f35b906020606492519162461bcd60e51b8352820152600f60248201526e496e76616c6964206164647265737360881b6044820152fd5b8382346101ae5760203660031901126101ae5760209160ff9082906001600160a01b0361090b610f5b565b1681526005855220541690519015158152f35b8382346101ae57816003193601126101ae57905490516001600160a01b039091168152602090f35b9150346102e45761095636610f76565b9190926109616110d5565b600383101580610bf8575b15610bb6573385526020600a815261098683872054610fc0565b610b7657825184868237600981860190815281900382019020546001600160a01b0316610b5b5782518486823781818681016009815203019020336bffffffffffffffffffffffff60a01b825416179055338652600a81528286209167ffffffffffffffff8511610b4857506109fc8254610fc0565b601f8111610b05575b508590601f8511600114610a7a57509183917fb9e788fc28e69f876035840c2b162474437d35622a8cfa689a88c04403bf7ee694610a64948891610a6f575b508360011b906000198560031b1c19161790555b519182913395836110ad565b0390a2600160025580f35b905086013538610a44565b90601f1985168388528288209288905b828210610aed575050918593917fb9e788fc28e69f876035840c2b162474437d35622a8cfa689a88c04403bf7ee696610a64969410610ad3575b5050600183811b019055610a58565b870135600019600386901b60f8161c191690553880610ac4565b80600185968294968c01358155019501930190610a8a565b828752818720601f860160051c810191838710610b3e575b601f0160051c01905b818110610b335750610a05565b878155600101610b26565b9091508190610b1d565b634e487b7160e01b875260419052602486fd5b509161047a915193849363ba58225160e01b855284016110ad565b606492519162461bcd60e51b8352820152601960248201527f526566657272616c20636f646520616c726561647920736574000000000000006044820152fd5b6020606492519162461bcd60e51b8352820152601860248201527f436f6465206c656e677468206d75737420626520332d313600000000000000006044820152fd5b50601083111561096c565b8382346101ae5760203660031901126101ae576020916001600160a01b0390829082610c2d610f5b565b168152600685522054169051908152f35b9150346102e457826003193601126102e457600154916001600160a01b03913383851603610ca95750506001600160a01b031991821660015582543392811683178455167f8be0079c531659141344cd1fd0a4f28419497f9722a3daafe3b4186f6b6457e08380a380f35b906020608492519162461bcd60e51b8352820152602960248201527f4f776e61626c6532537465703a2063616c6c6572206973206e6f7420746865206044820152683732bb9037bbb732b960b91b6064820152fd5b833461018c578060031936011261018c57610d17611055565b600180546001600160a01b03199081169091558154908116825581906001600160a01b03167f8be0079c531659141344cd1fd0a4f28419497f9722a3daafe3b4186f6b6457e08280a380f35b9150346102e457806003193601126102e457610d7d610f5b565b9060243591610d8a611055565b610d926110d5565b6001600160a01b0316928315610e08576113888311610dfa57916020917f85586c4fbdd243c2ab6356603276d5321549a5f5b86ff1b23c9e62589a71d91e9385875260058452818720600160ff198254161790558352818187205551908152a2600160025580f35b905163e8cdd5bd60e01b8152fd5b90516368b5413160e01b8152fd5b9150346102e45760203660031901126102e457610e31610f5b565b610e39611055565b610e416110d5565b6001600160a01b031680845260056020528184205490929060ff1615610ea85782845260056020908152828520805460ff191690555282208290557f13804342f71c806010e48884a27d663bcdeb9b832d00cdfc08e04389fadcf9ef8280a2600160025580f35b9051632c34c29b60e01b8152fd5b909150346102e45760203660031901126102e457803590610ed5611055565b6113888211610f185750907f0aff7fa037181a51fcf62389d33e99e4d642c5d735143976c28b7731ec8eec9291600354908060035582519182526020820152a180f35b606490602084519162461bcd60e51b8352820152601860248201527f466565207368617265206d757374206265203c3d2035302500000000000000006044820152fd5b600435906001600160a01b0382168203610f7157565b600080fd5b906020600319830112610f715760043567ffffffffffffffff92838211610f715780602383011215610f71578160040135938411610f715760248483010111610f71576024019190565b90600182811c92168015610ff0575b6020831014610fda57565b634e487b7160e01b600052602260045260246000fd5b91607f1691610fcf565b90601f8019910116810190811067ffffffffffffffff82111761101c57604052565b634e487b7160e01b600052604160045260246000fd5b60005b8381106110455750506000910152565b8181015183820152602001611035565b6000546001600160a01b0316330361106957565b606460405162461bcd60e51b815260206004820152602060248201527f4f776e61626c653a2063616c6c6572206973206e6f7420746865206f776e65726044820152fd5b90918060409360208452816020850152848401376000828201840152601f01601f1916010190565b60028054146110e45760028055565b60405162461bcd60e51b815260206004820152601f60248201527f5265656e7472616e637947756172643a207265656e7472616e742063616c6c006044820152606490fd5b6001600160a01b031660009081526005602052604090205460ff1615611164576004602052604060002054801561115d5790565b5060035490565b60009056fea2646970667358221220101dced35c2f8b1e640c6f228dddcef1c3a2a40290e169ac053c5af2785fc71864736f6c63430008140033",
  "linkReferences": {},
  "deployedLinkReferences": {}
}