{
  "_format": "hh-sol-artifact-1",
  "contractName": "Referral",
  "sourceName": "contracts/Referral.sol",
  "abi": [
    {
      "inputs": [],
      "name": "CannotReferSelf",
      "type": "error"
    },
    {
      "inputs": [],
      "name": "InvalidFeeShare",
      "type": "error"
    },
    {
      "inputs": [
        {
          "internalType": "string",
          "name": "code",
          "type": "string"
        }
      ],
      "name": "InvalidReferralCode",
      "type": "error"
    },
    {
      "inputs": [],
      "name": "NotPogPredict",
      "type": "error"
    },
    {
      "inputs": [
        {
          "internalType": "string",
          "name": "code",
          "type": "string"
        }
      ],
      "name": "ReferralCodeTaken",
      "type": "error"
    },
    {
      "inputs": [],
      "name": "ReferrerAlreadySet",
      "type": "error"
    },
    {
      "anonymous": false,
      "inputs": [
        {
          "indexed": false,
          "internalType": "uint256",
          "name": "oldShare",
          "type": "uint256"
        },
        {
          "indexed": false,
          "internalType": "uint256",
          "name": "newShare",
          "type": "uint256"
        }
      ],
      "name": "BaseReferralFeeShareUpdated",
      "type": "event"
    },
    {
      "anonymous": false,
      "inputs": [
        {
          "indexed": true,
          "internalType": "address",
          "name": "previousOwner",
          "type": "address"
        },
        {
          "indexed": true,
          "internalType": "address",
          "name": "newOwner",
          "type": "address"
        }
      ],
      "name": "OwnershipTransferStarted",
      "type": "event"
    },
    {
      "anonymous": false,
      "inputs": [
        {
          "indexed": true,
          "internalType": "address",
          "name": "previousOwner",
          "type": "address"
        },
        {
          "indexed": true,
          "internalType": "address",
          "name": "newOwner",
          "type": "address"
        }
      ],
      "name": "OwnershipTransferred",
      "type": "event"
    },
    {
      "anonymous": false,
      "inputs": [
        {
          "indexed": true,
          "internalType": "address",
          "name": "oldContract",
          "type": "address"
        },
        {
          "indexed": true,
          "internalType": "address",
          "name": "newContract",
          "type": "address"
        }
      ],
      "name": "PogPredictContractSet",
      "type": "event"
    },
    {
      "anonymous": false,
      "inputs": [
        {
          "indexed": true,
          "internalType": "address",
          "name": "user",
          "type": "address"
        },
        {
          "indexed": false,
          "internalType": "string",
          "name": "code",
          "type": "string"
        }
      ],
      "name": "ReferralCodeSet",
      "type": "event"
    },
    {
      "anonymous": false,
      "inputs": [
        {
          "indexed": true,
          "internalType": "address",
          "name": "referrer",
          "type": "address"
        },
        {
          "indexed": false,
          "internalType": "uint256",
          "name": "amount",
          "type": "uint256"
        },
        {
          "indexed": false,
          "internalType": "uint256",
          "name": "newTotal",
          "type": "uint256"
        }
      ],
      "name": "ReferralEarningsUpdated",
      "type": "event"
    },
    {
      "anonymous": false,
      "inputs": [
        {
          "indexed": true,
          "internalType": "address",
          "name": "user",
          "type": "address"
        },
        {
          "indexed": false,
          "internalType": "uint256",
          "name": "feeShare",
          "type": "uint256"
        }
      ],
      "name": "ReferralFeeShareUpdated",
      "type": "event"
    },
    {
      "anonymous": false,
      "inputs": [
        {
          "indexed": true,
          "internalType": "address",
          "name": "user",
          "type": "address"
        },
        {
          "indexed": true,
          "internalType": "address",
          "name": "referrer",
          "type": "address"
        }
      ],
      "name": "ReferrerSet",
      "type": "event"
    },
    {
      "inputs": [],
      "name": "acceptOwnership",
      "outputs": [],
      "stateMutability": "nonpayable",
      "type": "function"
    },
    {
      "inputs": [
        {
          "internalType": "address",
          "name": "",
          "type": "address"
        }
      ],
      "name": "addressToReferralCode",
      "outputs": [
        {
          "internalType": "string",
          "name": "",
          "type": "string"
        }
      ],
      "stateMutability": "view",
      "type": "function"
    },
    {
      "inputs": [],
      "name": "baseReferralFeeShare",
      "outputs": [
        {
          "internalType": "uint256",
          "name": "",
          "type": "uint256"
        }
      ],
      "stateMutability": "view",
      "type": "function"
    },
    {
      "inputs": [
        {
          "internalType": "address",
          "name": "",
          "type": "address"
        }
      ],
      "name": "customReferralFeeShares",
      "outputs": [
        {
          "internalType": "uint256",
          "name": "",
          "type": "uint256"
        }
      ],
      "stateMutability": "view",
      "type": "function"
    },
    {
      "inputs": [
        {
          "internalType": "address",
          "name": "_user",
          "type": "address"
        }
      ],
      "name": "getReferralFeeShare",
      "outputs": [
        {
          "internalType": "uint256",
          "name": "",
          "type": "uint256"
        }
      ],
      "stateMutability": "view",
      "type": "function"
    },
    {
      "inputs": [
        {
          "internalType": "address",
          "name": "_referrer",
          "type": "address"
        }
      ],
      "name": "isValidReferrer",
      "outputs": [
        {
          "internalType": "bool",
          "name": "",
          "type": "bool"
        }
      ],
      "stateMutability": "view",
      "type": "function"
    },
    {
      "inputs": [],
      "name": "owner",
      "outputs": [
        {
          "internalType": "address",
          "name": "",
          "type": "address"
        }
      ],
      "stateMutability": "view",
      "type": "function"
    },
    {
      "inputs": [],
      "name": "pendingOwner",
      "outputs": [
        {
          "internalType": "address",
          "name": "",
          "type": "address"
        }
      ],
      "stateMutability": "view",
      "type": "function"
    },
    {
      "inputs": [],
      "name": "pogPredictContract",
      "outputs": [
        {
          "internalType": "address",
          "name": "",
          "type": "address"
        }
      ],
      "stateMutability": "view",
      "type": "function"
    },
    {
      "inputs": [
        {
          "internalType": "string",
          "name": "",
          "type": "string"
        }
      ],
      "name": "referralCodeToAddress",
      "outputs": [
        {
          "internalType": "address",
          "name": "",
          "type": "address"
        }
      ],
      "stateMutability": "view",
      "type": "function"
    },
    {
      "inputs": [
        {
          "internalType": "address",
          "name": "",
          "type": "address"
        }
      ],
      "name": "referralCount",
      "outputs": [
        {
          "internalType": "uint256",
          "name": "",
          "type": "uint256"
        }
      ],
      "stateMutability": "view",
      "type": "function"
    },
    {
      "inputs": [
        {
          "internalType": "address",
          "name": "",
          "type": "address"
        }
      ],
      "name": "referralEarnings",
      "outputs": [
        {
          "internalType": "uint256",
          "name": "",
          "type": "uint256"
        }
      ],
      "stateMutability": "view",
      "type": "function"
    },
    {
      "inputs": [],
      "name": "renounceOwnership",
      "outputs": [],
      "stateMutability": "nonpayable",
      "type": "function"
    },
    {
      "inputs": [
        {
          "internalType": "uint256",
          "name": "_newShare",
          "type": "uint256"
        }
      ],
      "name": "setBaseReferralFeeShare",
      "outputs": [],
      "stateMutability": "nonpayable",
      "type": "function"
    },
    {
      "inputs": [
        {
          "internalType": "address",
          "name": "_user",
          "type": "address"
        },
        {
          "internalType": "uint256",
          "name": "_feeShare",
          "type": "uint256"
        }
      ],
      "name": "setCustomReferralFeeShare",
      "outputs": [],
      "stateMutability": "nonpayable",
      "type": "function"
    },
    {
      "inputs": [
        {
          "internalType": "address",
          "name": "_pogPredict",
          "type": "address"
        }
      ],
      "name": "setPogPredictContract",
      "outputs": [],
      "stateMutability": "nonpayable",
      "type": "function"
    },
    {
      "inputs": [
        {
          "internalType": "string",
          "name": "_code",
          "type": "string"
        }
      ],
      "name": "setReferralCode",
      "outputs": [],
      "stateMutability": "nonpayable",
      "type": "function"
    },
    {
      "inputs": [
        {
          "internalType": "string",
          "name": "_referralCode",
          "type": "string"
        }
      ],
      "name": "setReferrer",
      "outputs": [],
      "stateMutability": "nonpayable",
      "type": "function"
    },
    {
      "inputs": [
        {
          "internalType": "address",
          "name": "newOwner",
          "type": "address"
        }
      ],
      "name": "transferOwnership",
      "outputs": [],
      "stateMutability": "nonpayable",
      "type": "function"
    },
    {
      "inputs": [
        {
          "internalType": "address",
          "name": "_referrer",
          "type": "address"
        },
        {
          "internalType": "uint256",
          "name": "_amount",
          "type": "uint256"
        }
      ],
      "name": "updateReferralEarnings",
      "outputs": [],
      "stateMutability": "nonpayable",
      "type": "function"
    },
    {
      "inputs": [
        {
          "internalType": "address",
          "name": "",
          "type": "address"
        }
      ],
      "name": "userReferrer",
      "outputs": [
        {
          "internalType": "address",
          "name": "",
          "type": "address"
        }
      ],
      "stateMutability": "view",
      "type": "function"
    }
  ],
  "bytecode": "0x6080806040523461006e57600180546001600160a01b03199081169091556000805433928116831782556001600160a01b0316907f8be0079c531659141344cd1fd0a4f28419497f9722a3daafe3b4186f6b6457e09080a360016002556101f4600355610f8a90816100748239f35b600080fdfe60806040908082526004918236101561001757600080fd5b600092833560e01c92836305b4b90514610c78575082631749924f14610c16578263715018a614610bb157826379ba509714610af15782637c2f2f2814610a7b5782637c3fcc3814610a4057826386ec3e3d1461078a5782638da5cb5b14610762578263a3454c24146106b7578263b07be4801461053c578263b868e7a1146104d5578263b95f12731461049e578263babe64fc14610455578263bc9a9ebf14610345578263c07b528a1461030d578263d52f199f146102ca578263d6f923721461020b57508163db74559b146101d3578163e30c3978146101aa578163e63fc2d71461017d575063f2fde38b1461010e57600080fd5b3461017a57602036600319011261017a57610127610c94565b61012f610e34565b600180546001600160a01b0319166001600160a01b0392831690811790915582549091167f38d16b8cac22d99fc7c124b9cd0de2d3fa1faef420bfe791d8c362d765e227008380a380f35b80fd5b9050346101a657816003193601126101a657600a5490516001600160a01b039091168152602090f35b5080fd5b9050346101a657816003193601126101a65760015490516001600160a01b039091168152602090f35b9050346101a65760203660031901126101a65760209181906001600160a01b036101fb610c94565b1681526007845220549051908152f35b90833461017a57602092836003193601126101a65780359167ffffffffffffffff918284116101a657366023850112156101a657838101359283116102b75750835191610261601f8201601f1916870184610d33565b8083528583019336602483830101116102b35790806024889301863783010152610292835192839251928391610e11565b6008908201908152819003830190205490516001600160a01b039091168152f35b8280fd5b634e487b7160e01b825260419052602490fd5b8382346101a65760203660031901126101a6576020916103049082906001600160a01b036102f6610c94565b168152600985522054610cf9565b15159051908152f35b8382346101a65760203660031901126101a65760209181906001600160a01b03610335610c94565b1681526006845220549051908152f35b909150346102b35761035636610caf565b9290610360610eb4565b815190848183378482016008815282602060018060a01b03948593030190205416948515610436575050338414610428573385526005602052818520541661041b573384526005602090815281852080546001600160a01b0319168517905583855260079052832080549091600019821461040857506001019055337f5f7165288eef601591cf549e15ff19ef9060b7f71b9c115be946fa1fe7ebf68a8380a3600160025580f35b634e487b7160e01b855260119052602484fd5b516312cf907360e31b8152fd5b505163dc33424560e01b8152fd5b83516380d04fa360e01b815291829161045191838801610e8c565b0390fd5b909150346102b35760203660031901126102b357602092906001600160a01b0361047d610c94565b168252835281902054801561049457905b51908152f35b506003549061048e565b909150346102b35760203660031901126102b35760209282916001600160a01b036104c7610c94565b168252845220549051908152f35b50823461017a57602036600319011261017a5761050c9082906001600160a01b036104fe610c94565b168152600960205220610d6b565b90805180926020825261052e8151809281602086015260208686019101610e11565b601f01601f19168101030190f35b9150346102b357806003193601126102b357610556610c94565b600a54602435916001600160a01b0391821633036106a7571692831561066457811561062157838552600660205282852054908282019182811161060e5782106105da5750907f98680157b1f1536039d84db2228e62a0de0eebd991c5875a2a8634a7a350419d92918486526006602052808387205582519182526020820152a280f35b606490602085519162461bcd60e51b8352820152600e60248201526d4f766572666c6f7720636865636b60901b6044820152fd5b634e487b7160e01b875260118252602487fd5b606490602084519162461bcd60e51b8352820152601760248201527f416d6f756e74206d75737420626520706f7369746976650000000000000000006044820152fd5b606490602084519162461bcd60e51b8352820152601860248201527f496e76616c6964207265666572726572206164647265737300000000000000006044820152fd5b50505051639e90230d60e01b8152fd5b909150346102b35760203660031901126102b3576106d3610c94565b906106dc610e34565b6001600160a01b0391821692831561072d575050600a54826001600160601b0360a01b821617600a55167fb9a5ae82b24081f0e12c70596e13817313fd5a0926671fc26210bd4cf838c1248380a380f35b906020606492519162461bcd60e51b8352820152600f60248201526e496e76616c6964206164647265737360881b6044820152fd5b8382346101a657816003193601126101a657905490516001600160a01b039091168152602090f35b9150346102b35761079a36610caf565b9190926107a5610eb4565b600383101580610a35575b156109f35781518385823760088185019081528190036020908101909120546001600160a01b03166109d85733865260098152806107ef848820610d6b565b805190816109a4575b50505082518486823781818681016008815203019020336001600160601b0360a01b825416179055338652600981528286209167ffffffffffffffff851161099157506108458254610cf9565b601f811161094e575b508590601f85116001146108c357509183917fb9e788fc28e69f876035840c2b162474437d35622a8cfa689a88c04403bf7ee6946108ad9488916108b8575b508360011b906000198560031b1c19161790555b51918291339583610e8c565b0390a2600160025580f35b90508601353861088d565b90601f1985168388528288209288905b828210610936575050918593917fb9e788fc28e69f876035840c2b162474437d35622a8cfa689a88c04403bf7ee6966108ad96941061091c575b5050600183811b0190556108a1565b870135600019600386901b60f8161c19169055388061090d565b80600185968294968c013581550195019301906108d3565b828752818720601f860160051c810191838710610987575b601f0160051c01905b81811061097c575061084e565b87815560010161096f565b9091508190610966565b634e487b7160e01b875260419052602486fd5b816109b6849388518096819501610e11565b810160088152030190206001600160601b0360a01b81541690558038806107f8565b5091610451915193849363ba58225160e01b85528401610e8c565b6020606492519162461bcd60e51b8352820152601860248201527f436f6465206c656e677468206d75737420626520332d313600000000000000006044820152fd5b5060108311156107b0565b8382346101a65760203660031901126101a6576020916001600160a01b0390829082610a6a610c94565b168152600585522054169051908152f35b9150346102b357806003193601126102b35760207f41cb5785537bf94aad0e6e85dabcb6fb9ec6c231a87a60a5f7c3d45c0e5f1b3a91610ab9610c94565b9060243591610ac6610e34565b610ad4611388841115610f08565b6001600160a01b031680875294835280862082905551908152a280f35b9150346102b357826003193601126102b357600154916001600160a01b03913383851603610b5c5750506001600160a01b031991821660015582543392811683178455167f8be0079c531659141344cd1fd0a4f28419497f9722a3daafe3b4186f6b6457e08380a380f35b906020608492519162461bcd60e51b8352820152602960248201527f4f776e61626c6532537465703a2063616c6c6572206973206e6f7420746865206044820152683732bb9037bbb732b960b91b6064820152fd5b833461017a578060031936011261017a57610bca610e34565b600180546001600160a01b03199081169091558154908116825581906001600160a01b03167f8be0079c531659141344cd1fd0a4f28419497f9722a3daafe3b4186f6b6457e08280a380f35b9150346102b35760203660031901126102b3577f22c77b3fa4afac2c2e4bd8653861209b0e206f5863148b47bc2ec10cbf846e0f9135610c54610e34565b610c62611388821115610f08565b600354908060035582519182526020820152a180f35b8490346101a657816003193601126101a6576020906003548152f35b600435906001600160a01b0382168203610caa57565b600080fd5b906020600319830112610caa5760043567ffffffffffffffff92838211610caa5780602383011215610caa578160040135938411610caa5760248483010111610caa576024019190565b90600182811c92168015610d29575b6020831014610d1357565b634e487b7160e01b600052602260045260246000fd5b91607f1691610d08565b90601f8019910116810190811067ffffffffffffffff821117610d5557604052565b634e487b7160e01b600052604160045260246000fd5b9060405191826000825492610d7f84610cf9565b908184526001948581169081600014610dee5750600114610dab575b5050610da992500383610d33565b565b9093915060005260209081600020936000915b818310610dd6575050610da993508201013880610d9b565b85548884018501529485019487945091830191610dbe565b915050610da994506020925060ff191682840152151560051b8201013880610d9b565b60005b838110610e245750506000910152565b8181015183820152602001610e14565b6000546001600160a01b03163303610e4857565b606460405162461bcd60e51b815260206004820152602060248201527f4f776e61626c653a2063616c6c6572206973206e6f7420746865206f776e65726044820152fd5b90918060409360208452816020850152848401376000828201840152601f01601f1916010190565b6002805414610ec35760028055565b60405162461bcd60e51b815260206004820152601f60248201527f5265656e7472616e637947756172643a207265656e7472616e742063616c6c006044820152606490fd5b15610f0f57565b60405162461bcd60e51b815260206004820152601860248201527f466565207368617265206d757374206265203c3d2035302500000000000000006044820152606490fdfea264697066735822122010415f36eb49390995572d5b97687d5db46b518b0d73ec2c982060a3fd8238c564736f6c63430008140033",
  "linkReferences": {},
  "deployedLinkReferences": {}
}