{
  "_format": "hh-sol-artifact-1",
  "contractName": "Referral",
  "sourceName": "contracts/Referral.sol",
  "abi": [
    {
      "inputs": [],
      "name": "CannotReferSelf",
      "type": "error"
    },
    {
      "inputs": [],
      "name": "InvalidFeeShare",
      "type": "error"
    },
    {
      "inputs": [],
      "name": "InvalidKOLAddress",
      "type": "error"
    },
    {
      "inputs": [
        {
          "internalType": "string",
          "name": "code",
          "type": "string"
        }
      ],
      "name": "InvalidReferralCode",
      "type": "error"
    },
    {
      "inputs": [],
      "name": "NotKOL",
      "type": "error"
    },
    {
      "inputs": [],
      "name": "NotPogPredict",
      "type": "error"
    },
    {
      "inputs": [
        {
          "internalType": "string",
          "name": "code",
          "type": "string"
        }
      ],
      "name": "ReferralCodeTaken",
      "type": "error"
    },
    {
      "inputs": [],
      "name": "ReferrerAlreadySet",
      "type": "error"
    },
    {
      "anonymous": false,
      "inputs": [
        {
          "indexed": false,
          "internalType": "uint256",
          "name": "oldShare",
          "type": "uint256"
        },
        {
          "indexed": false,
          "internalType": "uint256",
          "name": "newShare",
          "type": "uint256"
        }
      ],
      "name": "DefaultReferralFeeShareUpdated",
      "type": "event"
    },
    {
      "anonymous": false,
      "inputs": [
        {
          "indexed": true,
          "internalType": "address",
          "name": "kol",
          "type": "address"
        },
        {
          "indexed": false,
          "internalType": "uint256",
          "name": "feeShare",
          "type": "uint256"
        }
      ],
      "name": "KOLAdded",
      "type": "event"
    },
    {
      "anonymous": false,
      "inputs": [
        {
          "indexed": true,
          "internalType": "address",
          "name": "kol",
          "type": "address"
        }
      ],
      "name": "KOLRemoved",
      "type": "event"
    },
    {
      "anonymous": false,
      "inputs": [
        {
          "indexed": true,
          "internalType": "address",
          "name": "previousOwner",
          "type": "address"
        },
        {
          "indexed": true,
          "internalType": "address",
          "name": "newOwner",
          "type": "address"
        }
      ],
      "name": "OwnershipTransferStarted",
      "type": "event"
    },
    {
      "anonymous": false,
      "inputs": [
        {
          "indexed": true,
          "internalType": "address",
          "name": "previousOwner",
          "type": "address"
        },
        {
          "indexed": true,
          "internalType": "address",
          "name": "newOwner",
          "type": "address"
        }
      ],
      "name": "OwnershipTransferred",
      "type": "event"
    },
    {
      "anonymous": false,
      "inputs": [
        {
          "indexed": true,
          "internalType": "address",
          "name": "oldContract",
          "type": "address"
        },
        {
          "indexed": true,
          "internalType": "address",
          "name": "newContract",
          "type": "address"
        }
      ],
      "name": "PogPredictContractSet",
      "type": "event"
    },
    {
      "anonymous": false,
      "inputs": [
        {
          "indexed": true,
          "internalType": "address",
          "name": "user",
          "type": "address"
        },
        {
          "indexed": false,
          "internalType": "string",
          "name": "code",
          "type": "string"
        }
      ],
      "name": "ReferralCodeSet",
      "type": "event"
    },
    {
      "anonymous": false,
      "inputs": [
        {
          "indexed": true,
          "internalType": "address",
          "name": "referrer",
          "type": "address"
        },
        {
          "indexed": false,
          "internalType": "uint256",
          "name": "amount",
          "type": "uint256"
        },
        {
          "indexed": false,
          "internalType": "uint256",
          "name": "newTotal",
          "type": "uint256"
        }
      ],
      "name": "ReferralEarningsUpdated",
      "type": "event"
    },
    {
      "anonymous": false,
      "inputs": [
        {
          "indexed": true,
          "internalType": "address",
          "name": "user",
          "type": "address"
        },
        {
          "indexed": true,
          "internalType": "address",
          "name": "referrer",
          "type": "address"
        }
      ],
      "name": "ReferrerSet",
      "type": "event"
    },
    {
      "inputs": [],
      "name": "acceptOwnership",
      "outputs": [],
      "stateMutability": "nonpayable",
      "type": "function"
    },
    {
      "inputs": [
        {
          "internalType": "address",
          "name": "_kol",
          "type": "address"
        },
        {
          "internalType": "uint256",
          "name": "_feeShare",
          "type": "uint256"
        }
      ],
      "name": "addKOL",
      "outputs": [],
      "stateMutability": "nonpayable",
      "type": "function"
    },
    {
      "inputs": [
        {
          "internalType": "address",
          "name": "",
          "type": "address"
        }
      ],
      "name": "addressToReferralCode",
      "outputs": [
        {
          "internalType": "string",
          "name": "",
          "type": "string"
        }
      ],
      "stateMutability": "view",
      "type": "function"
    },
    {
      "inputs": [
        {
          "internalType": "address",
          "name": "",
          "type": "address"
        }
      ],
      "name": "customReferralFeeShares",
      "outputs": [
        {
          "internalType": "uint256",
          "name": "",
          "type": "uint256"
        }
      ],
      "stateMutability": "view",
      "type": "function"
    },
    {
      "inputs": [],
      "name": "defaultReferralFeeShare",
      "outputs": [
        {
          "internalType": "uint256",
          "name": "",
          "type": "uint256"
        }
      ],
      "stateMutability": "view",
      "type": "function"
    },
    {
      "inputs": [
        {
          "internalType": "address",
          "name": "_kol",
          "type": "address"
        }
      ],
      "name": "getReferralFeeShare",
      "outputs": [
        {
          "internalType": "uint256",
          "name": "",
          "type": "uint256"
        }
      ],
      "stateMutability": "view",
      "type": "function"
    },
    {
      "inputs": [
        {
          "internalType": "address",
          "name": "",
          "type": "address"
        }
      ],
      "name": "isKOL",
      "outputs": [
        {
          "internalType": "bool",
          "name": "",
          "type": "bool"
        }
      ],
      "stateMutability": "view",
      "type": "function"
    },
    {
      "inputs": [
        {
          "internalType": "address",
          "name": "_referrer",
          "type": "address"
        }
      ],
      "name": "isValidReferrer",
      "outputs": [
        {
          "internalType": "bool",
          "name": "",
          "type": "bool"
        }
      ],
      "stateMutability": "view",
      "type": "function"
    },
    {
      "inputs": [],
      "name": "owner",
      "outputs": [
        {
          "internalType": "address",
          "name": "",
          "type": "address"
        }
      ],
      "stateMutability": "view",
      "type": "function"
    },
    {
      "inputs": [],
      "name": "pendingOwner",
      "outputs": [
        {
          "internalType": "address",
          "name": "",
          "type": "address"
        }
      ],
      "stateMutability": "view",
      "type": "function"
    },
    {
      "inputs": [],
      "name": "pogPredictContract",
      "outputs": [
        {
          "internalType": "address",
          "name": "",
          "type": "address"
        }
      ],
      "stateMutability": "view",
      "type": "function"
    },
    {
      "inputs": [
        {
          "internalType": "string",
          "name": "",
          "type": "string"
        }
      ],
      "name": "referralCodeToAddress",
      "outputs": [
        {
          "internalType": "address",
          "name": "",
          "type": "address"
        }
      ],
      "stateMutability": "view",
      "type": "function"
    },
    {
      "inputs": [
        {
          "internalType": "address",
          "name": "",
          "type": "address"
        }
      ],
      "name": "referralCount",
      "outputs": [
        {
          "internalType": "uint256",
          "name": "",
          "type": "uint256"
        }
      ],
      "stateMutability": "view",
      "type": "function"
    },
    {
      "inputs": [
        {
          "internalType": "address",
          "name": "",
          "type": "address"
        }
      ],
      "name": "referralEarnings",
      "outputs": [
        {
          "internalType": "uint256",
          "name": "",
          "type": "uint256"
        }
      ],
      "stateMutability": "view",
      "type": "function"
    },
    {
      "inputs": [
        {
          "internalType": "address",
          "name": "_kol",
          "type": "address"
        }
      ],
      "name": "removeKOL",
      "outputs": [],
      "stateMutability": "nonpayable",
      "type": "function"
    },
    {
      "inputs": [],
      "name": "renounceOwnership",
      "outputs": [],
      "stateMutability": "nonpayable",
      "type": "function"
    },
    {
      "inputs": [
        {
          "internalType": "uint256",
          "name": "_share",
          "type": "uint256"
        }
      ],
      "name": "setDefaultReferralFeeShare",
      "outputs": [],
      "stateMutability": "nonpayable",
      "type": "function"
    },
    {
      "inputs": [
        {
          "internalType": "address",
          "name": "_pogPredict",
          "type": "address"
        }
      ],
      "name": "setPogPredictContract",
      "outputs": [],
      "stateMutability": "nonpayable",
      "type": "function"
    },
    {
      "inputs": [
        {
          "internalType": "string",
          "name": "_code",
          "type": "string"
        }
      ],
      "name": "setReferralCode",
      "outputs": [],
      "stateMutability": "nonpayable",
      "type": "function"
    },
    {
      "inputs": [
        {
          "internalType": "string",
          "name": "_referralCode",
          "type": "string"
        }
      ],
      "name": "setReferrer",
      "outputs": [],
      "stateMutability": "nonpayable",
      "type": "function"
    },
    {
      "inputs": [
        {
          "internalType": "address",
          "name": "newOwner",
          "type": "address"
        }
      ],
      "name": "transferOwnership",
      "outputs": [],
      "stateMutability": "nonpayable",
      "type": "function"
    },
    {
      "inputs": [
        {
          "internalType": "address",
          "name": "_referrer",
          "type": "address"
        },
        {
          "internalType": "uint256",
          "name": "_amount",
          "type": "uint256"
        }
      ],
      "name": "updateReferralEarnings",
      "outputs": [],
      "stateMutability": "nonpayable",
      "type": "function"
    },
    {
      "inputs": [
        {
          "internalType": "address",
          "name": "",
          "type": "address"
        }
      ],
      "name": "userReferrer",
      "outputs": [
        {
          "internalType": "address",
          "name": "",
          "type": "address"
        }
      ],
      "stateMutability": "view",
      "type": "function"
    }
  ],
  "bytecode": "0x6080806040523461006e57600180546001600160a01b03199081169091556000805433928116831782556001600160a01b0316907f8be0079c531659141344cd1fd0a4f28419497f9722a3daafe3b4186f6b6457e09080a360016002556101f460035561111c90816100748239f35b600080fdfe60406080815260048036101561001457600080fd5b600091823560e01c918263040569aa14610d8d5782635844c6bf14610ced57826362ca09be14610c3a578263715018a614610bd557826379ba509714610b155782637c3fcc3814610ada57826386ec3e3d146108245782638da5cb5b146107fc5782639c2a4cce146107be578263a3454c2414610713578263b07be48014610551578263b868e7a1146104ea578263b95f1273146104b3578263babe64fc14610486578263bc9a9ebf14610376578263c07b528a1461033e578263d52f199f146102fb578263d6f923721461023c57508163db74559b14610204578163e30c3978146101db578163e63fc2d7146101b2578163ee3bde221461018f575063f2fde38b1461012057600080fd5b3461018c57602036600319011261018c57610139610e32565b610141610fd2565b600180546001600160a01b0319166001600160a01b0392831690811790915582549091167f38d16b8cac22d99fc7c124b9cd0de2d3fa1faef420bfe791d8c362d765e227008380a380f35b80fd5b9050346101ae57816003193601126101ae576020906003549051908152f35b5080fd5b9050346101ae57816003193601126101ae57600b5490516001600160a01b039091168152602090f35b9050346101ae57816003193601126101ae5760015490516001600160a01b039091168152602090f35b9050346101ae5760203660031901126101ae5760209181906001600160a01b0361022c610e32565b1681526008845220549051908152f35b90833461018c57602092836003193601126101ae5780359167ffffffffffffffff918284116101ae57366023850112156101ae57838101359283116102e85750835191610292601f8201601f1916870184610ed1565b8083528583019336602483830101116102e457908060248893018637830101526102c3835192839251928391610faf565b6009908201908152819003830190205490516001600160a01b039091168152f35b8280fd5b634e487b7160e01b825260419052602490fd5b8382346101ae5760203660031901126101ae576020916103359082906001600160a01b03610327610e32565b168152600a85522054610e97565b15159051908152f35b8382346101ae5760203660031901126101ae5760209181906001600160a01b03610366610e32565b1681526007845220549051908152f35b909150346102e45761038736610e4d565b9290610391611052565b815190848183378482016009815282602060018060a01b03948593030190205416948515610467575050338414610459573385526006602052818520541661044c573384526006602090815281852080546001600160a01b0319168517905583855260089052832080549091600019821461043957506001019055337f5f7165288eef601591cf549e15ff19ef9060b7f71b9c115be946fa1fe7ebf68a8380a3600160025580f35b634e487b7160e01b855260119052602484fd5b516312cf907360e31b8152fd5b505163dc33424560e01b8152fd5b83516380d04fa360e01b81529182916104829183880161102a565b0390fd5b8382346101ae5760203660031901126101ae576020906104ac6104a7610e32565b6110a6565b9051908152f35b909150346102e45760203660031901126102e45760209282916001600160a01b036104dc610e32565b168252845220549051908152f35b50823461018c57602036600319011261018c576105219082906001600160a01b03610513610e32565b168152600a60205220610f09565b9080518092602082526105438151809281602086015260208686019101610faf565b601f01601f19168101030190f35b8390346101ae57826003193601126101ae5761056b610e32565b600b54602494918535916001600160a01b0391908216330361070357169283156106c157811561067f5783855260206005815260ff84872054161561064857848652600781528386205491838301928381116106365783106106055750859650847f98680157b1f1536039d84db2228e62a0de0eebd991c5875a2a8634a7a350419d9596526007815281848820558351928352820152a280f35b600e8860649387519362461bcd60e51b85528401528201526d4f766572666c6f7720636865636b60901b6044820152fd5b634e487b7160e01b8852601182528888fd5b835162461bcd60e51b81529182015260148187015273149959995c9c995c881b5d5cdd0818994812d3d360621b6044820152606490fd5b606490601787602086519362461bcd60e51b85528401528201527f416d6f756e74206d75737420626520706f7369746976650000000000000000006044820152fd5b606490601887602086519362461bcd60e51b85528401528201527f496e76616c6964207265666572726572206164647265737300000000000000006044820152fd5b50505051639e90230d60e01b8152fd5b909150346102e45760203660031901126102e45761072f610e32565b90610738610fd2565b6001600160a01b03918216928315610789575050600b54826001600160601b0360a01b821617600b55167fb9a5ae82b24081f0e12c70596e13817313fd5a0926671fc26210bd4cf838c1248380a380f35b906020606492519162461bcd60e51b8352820152600f60248201526e496e76616c6964206164647265737360881b6044820152fd5b8382346101ae5760203660031901126101ae5760209160ff9082906001600160a01b036107e9610e32565b1681526005855220541690519015158152f35b8382346101ae57816003193601126101ae57905490516001600160a01b039091168152602090f35b9150346102e45761083436610e4d565b91909261083f611052565b600383101580610acf575b15610a8d5781518385823760098185019081528190036020908101909120546001600160a01b0316610a7257338652600a815280610889848820610f09565b80519081610a3e575b50505082518486823781818681016009815203019020336001600160601b0360a01b825416179055338652600a81528286209167ffffffffffffffff8511610a2b57506108df8254610e97565b601f81116109e8575b508590601f851160011461095d57509183917fb9e788fc28e69f876035840c2b162474437d35622a8cfa689a88c04403bf7ee694610947948891610952575b508360011b906000198560031b1c19161790555b5191829133958361102a565b0390a2600160025580f35b905086013538610927565b90601f1985168388528288209288905b8282106109d0575050918593917fb9e788fc28e69f876035840c2b162474437d35622a8cfa689a88c04403bf7ee6966109479694106109b6575b5050600183811b01905561093b565b870135600019600386901b60f8161c1916905538806109a7565b80600185968294968c0135815501950193019061096d565b828752818720601f860160051c810191838710610a21575b601f0160051c01905b818110610a1657506108e8565b878155600101610a09565b9091508190610a00565b634e487b7160e01b875260419052602486fd5b81610a50849388518096819501610faf565b810160098152030190206001600160601b0360a01b8154169055803880610892565b5091610482915193849363ba58225160e01b8552840161102a565b6020606492519162461bcd60e51b8352820152601860248201527f436f6465206c656e677468206d75737420626520332d313600000000000000006044820152fd5b50601083111561084a565b8382346101ae5760203660031901126101ae576020916001600160a01b0390829082610b04610e32565b168152600685522054169051908152f35b9150346102e457826003193601126102e457600154916001600160a01b03913383851603610b805750506001600160a01b031991821660015582543392811683178455167f8be0079c531659141344cd1fd0a4f28419497f9722a3daafe3b4186f6b6457e08380a380f35b906020608492519162461bcd60e51b8352820152602960248201527f4f776e61626c6532537465703a2063616c6c6572206973206e6f7420746865206044820152683732bb9037bbb732b960b91b6064820152fd5b833461018c578060031936011261018c57610bee610fd2565b600180546001600160a01b03199081169091558154908116825581906001600160a01b03167f8be0079c531659141344cd1fd0a4f28419497f9722a3daafe3b4186f6b6457e08280a380f35b9150346102e457806003193601126102e457610c54610e32565b9060243591610c61610fd2565b610c69611052565b6001600160a01b0316928315610cdf576113888311610cd157916020917f85586c4fbdd243c2ab6356603276d5321549a5f5b86ff1b23c9e62589a71d91e9385875260058452818720600160ff198254161790558352818187205551908152a2600160025580f35b905163e8cdd5bd60e01b8152fd5b90516368b5413160e01b8152fd5b9150346102e45760203660031901126102e457610d08610e32565b610d10610fd2565b610d18611052565b6001600160a01b031680845260056020528184205490929060ff1615610d7f5782845260056020908152828520805460ff191690555282208290557f13804342f71c806010e48884a27d663bcdeb9b832d00cdfc08e04389fadcf9ef8280a2600160025580f35b9051632c34c29b60e01b8152fd5b909150346102e45760203660031901126102e457803590610dac610fd2565b6113888211610def5750907f0aff7fa037181a51fcf62389d33e99e4d642c5d735143976c28b7731ec8eec9291600354908060035582519182526020820152a180f35b606490602084519162461bcd60e51b8352820152601860248201527f466565207368617265206d757374206265203c3d2035302500000000000000006044820152fd5b600435906001600160a01b0382168203610e4857565b600080fd5b906020600319830112610e485760043567ffffffffffffffff92838211610e485780602383011215610e48578160040135938411610e485760248483010111610e48576024019190565b90600182811c92168015610ec7575b6020831014610eb157565b634e487b7160e01b600052602260045260246000fd5b91607f1691610ea6565b90601f8019910116810190811067ffffffffffffffff821117610ef357604052565b634e487b7160e01b600052604160045260246000fd5b9060405191826000825492610f1d84610e97565b908184526001948581169081600014610f8c5750600114610f49575b5050610f4792500383610ed1565b565b9093915060005260209081600020936000915b818310610f74575050610f4793508201013880610f39565b85548884018501529485019487945091830191610f5c565b915050610f4794506020925060ff191682840152151560051b8201013880610f39565b60005b838110610fc25750506000910152565b8181015183820152602001610fb2565b6000546001600160a01b03163303610fe657565b606460405162461bcd60e51b815260206004820152602060248201527f4f776e61626c653a2063616c6c6572206973206e6f7420746865206f776e65726044820152fd5b90918060409360208452816020850152848401376000828201840152601f01601f1916010190565b60028054146110615760028055565b60405162461bcd60e51b815260206004820152601f60248201527f5265656e7472616e637947756172643a207265656e7472616e742063616c6c006044820152606490fd5b6001600160a01b031660009081526005602052604090205460ff16156110e157600460205260406000205480156110da5790565b5060035490565b60009056fea2646970667358221220e08a08b9f350a7228aa83834de2d078de13657a7caa814047d4ad57b00c5677864736f6c63430008140033",
  "linkReferences": {},
  "deployedLinkReferences": {}
}