{
  "_format": "hh-sol-artifact-1",
  "contractName": "PogPredict",
  "sourceName": "contracts/PogPredict.sol",
  "abi": [
    {
      "inputs": [
        {
          "internalType": "address",
          "name": "_initialFeeRecipient",
          "type": "address"
        },
        {
          "internalType": "address",
          "name": "_oracleUpdater",
          "type": "address"
        },
        {
          "internalType": "address",
          "name": "_referral",
          "type": "address"
        }
      ],
      "stateMutability": "nonpayable",
      "type": "constructor"
    },
    {
      "anonymous": false,
      "inputs": [
        {
          "indexed": false,
          "internalType": "string",
          "name": "setting",
          "type": "string"
        },
        {
          "indexed": false,
          "internalType": "uint256",
          "name": "oldValue",
          "type": "uint256"
        },
        {
          "indexed": false,
          "internalType": "uint256",
          "name": "newValue",
          "type": "uint256"
        }
      ],
      "name": "ContractSettingUpdated",
      "type": "event"
    },
    {
      "anonymous": false,
      "inputs": [
        {
          "indexed": false,
          "internalType": "address",
          "name": "oldRecipient",
          "type": "address"
        },
        {
          "indexed": false,
          "internalType": "address",
          "name": "newRecipient",
          "type": "address"
        }
      ],
      "name": "FeeRecipientChanged",
      "type": "event"
    },
    {
      "anonymous": false,
      "inputs": [
        {
          "indexed": false,
          "internalType": "bool",
          "name": "enabled",
          "type": "bool"
        }
      ],
      "name": "ManualResolutionToggled",
      "type": "event"
    },
    {
      "anonymous": false,
      "inputs": [
        {
          "indexed": true,
          "internalType": "uint256",
          "name": "marketId",
          "type": "uint256"
        },
        {
          "indexed": false,
          "internalType": "string",
          "name": "question",
          "type": "string"
        },
        {
          "indexed": false,
          "internalType": "string",
          "name": "optionA",
          "type": "string"
        },
        {
          "indexed": false,
          "internalType": "string",
          "name": "optionB",
          "type": "string"
        },
        {
          "indexed": false,
          "internalType": "string",
          "name": "category",
          "type": "string"
        },
        {
          "indexed": false,
          "internalType": "string",
          "name": "logoUrlA",
          "type": "string"
        },
        {
          "indexed": false,
          "internalType": "string",
          "name": "logoUrlB",
          "type": "string"
        },
        {
          "indexed": false,
          "internalType": "uint256",
          "name": "endTime",
          "type": "uint256"
        },
        {
          "indexed": false,
          "internalType": "uint256",
          "name": "oracleMatchId",
          "type": "uint256"
        }
      ],
      "name": "MarketCreated",
      "type": "event"
    },
    {
      "anonymous": false,
      "inputs": [
        {
          "indexed": true,
          "internalType": "uint256",
          "name": "marketId",
          "type": "uint256"
        },
        {
          "indexed": false,
          "internalType": "string",
          "name": "reason",
          "type": "string"
        },
        {
          "indexed": false,
          "internalType": "address",
          "name": "resolvedBy",
          "type": "address"
        }
      ],
      "name": "MarketRefunded",
      "type": "event"
    },
    {
      "anonymous": false,
      "inputs": [
        {
          "indexed": true,
          "internalType": "uint256",
          "name": "marketId",
          "type": "uint256"
        },
        {
          "indexed": false,
          "internalType": "enum PogPredict.MarketOutcome",
          "name": "outcome",
          "type": "uint8"
        },
        {
          "indexed": false,
          "internalType": "enum PogPredict.ResolutionSource",
          "name": "source",
          "type": "uint8"
        },
        {
          "indexed": false,
          "internalType": "string",
          "name": "details",
          "type": "string"
        },
        {
          "indexed": false,
          "internalType": "address",
          "name": "resolvedBy",
          "type": "address"
        }
      ],
      "name": "MarketResolved",
      "type": "event"
    },
    {
      "anonymous": false,
      "inputs": [
        {
          "indexed": true,
          "internalType": "address",
          "name": "user",
          "type": "address"
        },
        {
          "indexed": true,
          "internalType": "uint256",
          "name": "marketId",
          "type": "uint256"
        },
        {
          "indexed": false,
          "internalType": "bool",
          "name": "isOptionA",
          "type": "bool"
        },
        {
          "indexed": false,
          "internalType": "uint256",
          "name": "amount",
          "type": "uint256"
        },
        {
          "indexed": false,
          "internalType": "uint256",
          "name": "timestamp",
          "type": "uint256"
        }
      ],
      "name": "OptionBought",
      "type": "event"
    },
    {
      "anonymous": false,
      "inputs": [
        {
          "indexed": true,
          "internalType": "address",
          "name": "user",
          "type": "address"
        },
        {
          "indexed": true,
          "internalType": "uint256",
          "name": "marketId",
          "type": "uint256"
        },
        {
          "indexed": false,
          "internalType": "bool",
          "name": "isOptionA",
          "type": "bool"
        },
        {
          "indexed": false,
          "internalType": "uint256",
          "name": "amount",
          "type": "uint256"
        },
        {
          "indexed": false,
          "internalType": "uint256",
          "name": "payout",
          "type": "uint256"
        },
        {
          "indexed": false,
          "internalType": "uint256",
          "name": "timestamp",
          "type": "uint256"
        }
      ],
      "name": "OptionSold",
      "type": "event"
    },
    {
      "anonymous": false,
      "inputs": [
        {
          "indexed": false,
          "internalType": "address",
          "name": "oldUpdater",
          "type": "address"
        },
        {
          "indexed": false,
          "internalType": "address",
          "name": "newUpdater",
          "type": "address"
        }
      ],
      "name": "OracleUpdaterChanged",
      "type": "event"
    },
    {
      "anonymous": false,
      "inputs": [
        {
          "indexed": true,
          "internalType": "address",
          "name": "previousOwner",
          "type": "address"
        },
        {
          "indexed": true,
          "internalType": "address",
          "name": "newOwner",
          "type": "address"
        }
      ],
      "name": "OwnershipTransferStarted",
      "type": "event"
    },
    {
      "anonymous": false,
      "inputs": [
        {
          "indexed": true,
          "internalType": "address",
          "name": "previousOwner",
          "type": "address"
        },
        {
          "indexed": true,
          "internalType": "address",
          "name": "newOwner",
          "type": "address"
        }
      ],
      "name": "OwnershipTransferred",
      "type": "event"
    },
    {
      "anonymous": false,
      "inputs": [
        {
          "indexed": false,
          "internalType": "address",
          "name": "account",
          "type": "address"
        }
      ],
      "name": "Paused",
      "type": "event"
    },
    {
      "anonymous": false,
      "inputs": [
        {
          "indexed": true,
          "internalType": "address",
          "name": "user",
          "type": "address"
        },
        {
          "indexed": true,
          "internalType": "uint256",
          "name": "marketId",
          "type": "uint256"
        },
        {
          "indexed": false,
          "internalType": "uint256",
          "name": "amount",
          "type": "uint256"
        }
      ],
      "name": "PositionLost",
      "type": "event"
    },
    {
      "anonymous": false,
      "inputs": [
        {
          "indexed": true,
          "internalType": "address",
          "name": "user",
          "type": "address"
        },
        {
          "indexed": true,
          "internalType": "uint256",
          "name": "marketId",
          "type": "uint256"
        },
        {
          "indexed": false,
          "internalType": "uint256",
          "name": "amount",
          "type": "uint256"
        }
      ],
      "name": "PositionWon",
      "type": "event"
    },
    {
      "anonymous": false,
      "inputs": [
        {
          "indexed": true,
          "internalType": "address",
          "name": "user",
          "type": "address"
        },
        {
          "indexed": true,
          "internalType": "address",
          "name": "referrer",
          "type": "address"
        },
        {
          "indexed": false,
          "internalType": "uint256",
          "name": "amount",
          "type": "uint256"
        },
        {
          "indexed": false,
          "internalType": "uint256",
          "name": "marketId",
          "type": "uint256"
        }
      ],
      "name": "ReferralFeeDistributed",
      "type": "event"
    },
    {
      "anonymous": false,
      "inputs": [
        {
          "indexed": true,
          "internalType": "uint256",
          "name": "marketId",
          "type": "uint256"
        },
        {
          "indexed": true,
          "internalType": "address",
          "name": "user",
          "type": "address"
        },
        {
          "indexed": false,
          "internalType": "uint256",
          "name": "amount",
          "type": "uint256"
        }
      ],
      "name": "RefundClaimed",
      "type": "event"
    },
    {
      "anonymous": false,
      "inputs": [
        {
          "indexed": false,
          "internalType": "address",
          "name": "account",
          "type": "address"
        }
      ],
      "name": "Unpaused",
      "type": "event"
    },
    {
      "anonymous": false,
      "inputs": [
        {
          "indexed": true,
          "internalType": "address",
          "name": "user",
          "type": "address"
        },
        {
          "indexed": true,
          "internalType": "uint256",
          "name": "marketId",
          "type": "uint256"
        },
        {
          "indexed": false,
          "internalType": "uint256",
          "name": "amount",
          "type": "uint256"
        }
      ],
      "name": "UserLost",
      "type": "event"
    },
    {
      "anonymous": false,
      "inputs": [
        {
          "indexed": true,
          "internalType": "address",
          "name": "user",
          "type": "address"
        },
        {
          "indexed": true,
          "internalType": "uint256",
          "name": "marketId",
          "type": "uint256"
        },
        {
          "indexed": false,
          "internalType": "uint256",
          "name": "amount",
          "type": "uint256"
        }
      ],
      "name": "UserWon",
      "type": "event"
    },
    {
      "anonymous": false,
      "inputs": [
        {
          "indexed": true,
          "internalType": "address",
          "name": "user",
          "type": "address"
        },
        {
          "indexed": true,
          "internalType": "uint256",
          "name": "marketId",
          "type": "uint256"
        },
        {
          "indexed": false,
          "internalType": "uint256",
          "name": "payout",
          "type": "uint256"
        },
        {
          "indexed": false,
          "internalType": "uint256",
          "name": "timestamp",
          "type": "uint256"
        }
      ],
      "name": "WinningsClaimed",
      "type": "event"
    },
    {
      "inputs": [],
      "name": "acceptOwnership",
      "outputs": [],
      "stateMutability": "nonpayable",
      "type": "function"
    },
    {
      "inputs": [
        {
          "internalType": "uint256",
          "name": "_marketId",
          "type": "uint256"
        },
        {
          "internalType": "bool",
          "name": "_isOptionA",
          "type": "bool"
        }
      ],
      "name": "buyOption",
      "outputs": [],
      "stateMutability": "payable",
      "type": "function"
    },
    {
      "inputs": [
        {
          "internalType": "uint256",
          "name": "_marketId",
          "type": "uint256"
        }
      ],
      "name": "claimRefund",
      "outputs": [],
      "stateMutability": "nonpayable",
      "type": "function"
    },
    {
      "inputs": [
        {
          "internalType": "uint256",
          "name": "_marketId",
          "type": "uint256"
        }
      ],
      "name": "claimWinnings",
      "outputs": [],
      "stateMutability": "nonpayable",
      "type": "function"
    },
    {
      "inputs": [
        {
          "internalType": "string",
          "name": "_question",
          "type": "string"
        },
        {
          "internalType": "string",
          "name": "_optionA",
          "type": "string"
        },
        {
          "internalType": "string",
          "name": "_optionB",
          "type": "string"
        },
        {
          "internalType": "string",
          "name": "_category",
          "type": "string"
        },
        {
          "internalType": "uint256",
          "name": "_duration",
          "type": "uint256"
        },
        {
          "internalType": "string",
          "name": "_logoUrlA",
          "type": "string"
        },
        {
          "internalType": "string",
          "name": "_logoUrlB",
          "type": "string"
        },
        {
          "internalType": "uint256",
          "name": "_oracleMatchId",
          "type": "uint256"
        }
      ],
      "name": "createMarket",
      "outputs": [
        {
          "internalType": "uint256",
          "name": "",
          "type": "uint256"
        }
      ],
      "stateMutability": "payable",
      "type": "function"
    },
    {
      "inputs": [],
      "name": "cs2Oracle",
      "outputs": [
        {
          "internalType": "contract ICS2Oracle",
          "name": "",
          "type": "address"
        }
      ],
      "stateMutability": "view",
      "type": "function"
    },
    {
      "inputs": [
        {
          "internalType": "uint256",
          "name": "_marketId",
          "type": "uint256"
        },
        {
          "internalType": "string",
          "name": "_reason",
          "type": "string"
        },
        {
          "internalType": "bool",
          "name": "withRefund",
          "type": "bool"
        }
      ],
      "name": "endMarket",
      "outputs": [],
      "stateMutability": "nonpayable",
      "type": "function"
    },
    {
      "inputs": [],
      "name": "feeRecipient",
      "outputs": [
        {
          "internalType": "address",
          "name": "",
          "type": "address"
        }
      ],
      "stateMutability": "view",
      "type": "function"
    },
    {
      "inputs": [
        {
          "internalType": "uint256",
          "name": "_marketId",
          "type": "uint256"
        }
      ],
      "name": "getMarketInfo",
      "outputs": [
        {
          "internalType": "string",
          "name": "question",
          "type": "string"
        },
        {
          "internalType": "string",
          "name": "optionA",
          "type": "string"
        },
        {
          "internalType": "string",
          "name": "optionB",
          "type": "string"
        },
        {
          "internalType": "string",
          "name": "category",
          "type": "string"
        },
        {
          "internalType": "string",
          "name": "logoUrlA",
          "type": "string"
        },
        {
          "internalType": "string",
          "name": "logoUrlB",
          "type": "string"
        },
        {
          "internalType": "uint256",
          "name": "endTime",
          "type": "uint256"
        },
        {
          "internalType": "enum PogPredict.MarketOutcome",
          "name": "outcome",
          "type": "uint8"
        },
        {
          "internalType": "enum PogPredict.MarketStatus",
          "name": "status",
          "type": "uint8"
        },
        {
          "internalType": "bool",
          "name": "resolved",
          "type": "bool"
        },
        {
          "internalType": "uint256",
          "name": "totalOptionA",
          "type": "uint256"
        },
        {
          "internalType": "uint256",
          "name": "totalOptionB",
          "type": "uint256"
        }
      ],
      "stateMutability": "view",
      "type": "function"
    },
    {
      "inputs": [
        {
          "internalType": "uint256",
          "name": "_marketId",
          "type": "uint256"
        },
        {
          "internalType": "uint256",
          "name": "_ethIn",
          "type": "uint256"
        },
        {
          "internalType": "bool",
          "name": "isOptionA",
          "type": "bool"
        }
      ],
      "name": "getPriceImpact",
      "outputs": [
        {
          "internalType": "uint256",
          "name": "",
          "type": "uint256"
        }
      ],
      "stateMutability": "view",
      "type": "function"
    },
    {
      "inputs": [
        {
          "internalType": "uint256",
          "name": "_marketId",
          "type": "uint256"
        },
        {
          "internalType": "address",
          "name": "_user",
          "type": "address"
        }
      ],
      "name": "getUserBalances",
      "outputs": [
        {
          "internalType": "uint256",
          "name": "optionA",
          "type": "uint256"
        },
        {
          "internalType": "uint256",
          "name": "optionB",
          "type": "uint256"
        }
      ],
      "stateMutability": "view",
      "type": "function"
    },
    {
      "inputs": [
        {
          "internalType": "uint256",
          "name": "",
          "type": "uint256"
        },
        {
          "internalType": "address",
          "name": "",
          "type": "address"
        }
      ],
      "name": "hasClaimed",
      "outputs": [
        {
          "internalType": "bool",
          "name": "",
          "type": "bool"
        }
      ],
      "stateMutability": "view",
      "type": "function"
    },
    {
      "inputs": [
        {
          "internalType": "uint256",
          "name": "",
          "type": "uint256"
        },
        {
          "internalType": "address",
          "name": "",
          "type": "address"
        }
      ],
      "name": "hasUserParticipated",
      "outputs": [
        {
          "internalType": "bool",
          "name": "",
          "type": "bool"
        }
      ],
      "stateMutability": "view",
      "type": "function"
    },
    {
      "inputs": [],
      "name": "manualResolutionEnabled",
      "outputs": [
        {
          "internalType": "bool",
          "name": "",
          "type": "bool"
        }
      ],
      "stateMutability": "view",
      "type": "function"
    },
    {
      "inputs": [],
      "name": "marketCount",
      "outputs": [
        {
          "internalType": "uint256",
          "name": "",
          "type": "uint256"
        }
      ],
      "stateMutability": "view",
      "type": "function"
    },
    {
      "inputs": [],
      "name": "marketCreationFee",
      "outputs": [
        {
          "internalType": "uint256",
          "name": "",
          "type": "uint256"
        }
      ],
      "stateMutability": "view",
      "type": "function"
    },
    {
      "inputs": [
        {
          "internalType": "uint256",
          "name": "",
          "type": "uint256"
        }
      ],
      "name": "markets",
      "outputs": [
        {
          "internalType": "string",
          "name": "question",
          "type": "string"
        },
        {
          "internalType": "string",
          "name": "optionA",
          "type": "string"
        },
        {
          "internalType": "string",
          "name": "optionB",
          "type": "string"
        },
        {
          "internalType": "string",
          "name": "category",
          "type": "string"
        },
        {
          "internalType": "string",
          "name": "logoUrlA",
          "type": "string"
        },
        {
          "internalType": "string",
          "name": "logoUrlB",
          "type": "string"
        },
        {
          "internalType": "uint256",
          "name": "endTime",
          "type": "uint256"
        },
        {
          "internalType": "enum PogPredict.MarketOutcome",
          "name": "outcome",
          "type": "uint8"
        },
        {
          "internalType": "enum PogPredict.MarketStatus",
          "name": "status",
          "type": "uint8"
        },
        {
          "internalType": "bool",
          "name": "resolved",
          "type": "bool"
        },
        {
          "internalType": "enum PogPredict.ResolutionSource",
          "name": "resolutionSource",
          "type": "uint8"
        },
        {
          "internalType": "uint256",
          "name": "oracleMatchId",
          "type": "uint256"
        },
        {
          "internalType": "uint256",
          "name": "totalOptionA",
          "type": "uint256"
        },
        {
          "internalType": "uint256",
          "name": "totalOptionB",
          "type": "uint256"
        },
        {
          "internalType": "string",
          "name": "resolutionDetails",
          "type": "string"
        },
        {
          "internalType": "uint256",
          "name": "resolutionTimestamp",
          "type": "uint256"
        },
        {
          "internalType": "address",
          "name": "resolvedBy",
          "type": "address"
        }
      ],
      "stateMutability": "view",
      "type": "function"
    },
    {
      "inputs": [],
      "name": "maxPosition",
      "outputs": [
        {
          "internalType": "uint256",
          "name": "",
          "type": "uint256"
        }
      ],
      "stateMutability": "view",
      "type": "function"
    },
    {
      "inputs": [],
      "name": "minInitialPool",
      "outputs": [
        {
          "internalType": "uint256",
          "name": "",
          "type": "uint256"
        }
      ],
      "stateMutability": "view",
      "type": "function"
    },
    {
      "inputs": [],
      "name": "minPosition",
      "outputs": [
        {
          "internalType": "uint256",
          "name": "",
          "type": "uint256"
        }
      ],
      "stateMutability": "view",
      "type": "function"
    },
    {
      "inputs": [
        {
          "internalType": "uint256",
          "name": "",
          "type": "uint256"
        },
        {
          "internalType": "address",
          "name": "",
          "type": "address"
        }
      ],
      "name": "optionABalance",
      "outputs": [
        {
          "internalType": "uint256",
          "name": "",
          "type": "uint256"
        }
      ],
      "stateMutability": "view",
      "type": "function"
    },
    {
      "inputs": [
        {
          "internalType": "uint256",
          "name": "",
          "type": "uint256"
        },
        {
          "internalType": "address",
          "name": "",
          "type": "address"
        }
      ],
      "name": "optionBBalance",
      "outputs": [
        {
          "internalType": "uint256",
          "name": "",
          "type": "uint256"
        }
      ],
      "stateMutability": "view",
      "type": "function"
    },
    {
      "inputs": [],
      "name": "oracleUpdater",
      "outputs": [
        {
          "internalType": "address",
          "name": "",
          "type": "address"
        }
      ],
      "stateMutability": "view",
      "type": "function"
    },
    {
      "inputs": [],
      "name": "owner",
      "outputs": [
        {
          "internalType": "address",
          "name": "",
          "type": "address"
        }
      ],
      "stateMutability": "view",
      "type": "function"
    },
    {
      "inputs": [],
      "name": "pause",
      "outputs": [],
      "stateMutability": "nonpayable",
      "type": "function"
    },
    {
      "inputs": [],
      "name": "paused",
      "outputs": [
        {
          "internalType": "bool",
          "name": "",
          "type": "bool"
        }
      ],
      "stateMutability": "view",
      "type": "function"
    },
    {
      "inputs": [],
      "name": "pendingOwner",
      "outputs": [
        {
          "internalType": "address",
          "name": "",
          "type": "address"
        }
      ],
      "stateMutability": "view",
      "type": "function"
    },
    {
      "inputs": [],
      "name": "referral",
      "outputs": [
        {
          "internalType": "contract Referral",
          "name": "",
          "type": "address"
        }
      ],
      "stateMutability": "view",
      "type": "function"
    },
    {
      "inputs": [],
      "name": "refundWindow",
      "outputs": [
        {
          "internalType": "uint256",
          "name": "",
          "type": "uint256"
        }
      ],
      "stateMutability": "view",
      "type": "function"
    },
    {
      "inputs": [],
      "name": "renounceOwnership",
      "outputs": [],
      "stateMutability": "nonpayable",
      "type": "function"
    },
    {
      "inputs": [
        {
          "internalType": "uint256",
          "name": "_marketId",
          "type": "uint256"
        }
      ],
      "name": "resolveMarketFromOracle",
      "outputs": [],
      "stateMutability": "nonpayable",
      "type": "function"
    },
    {
      "inputs": [
        {
          "internalType": "uint256",
          "name": "_marketId",
          "type": "uint256"
        },
        {
          "internalType": "enum PogPredict.MarketOutcome",
          "name": "_outcome",
          "type": "uint8"
        },
        {
          "internalType": "string",
          "name": "_details",
          "type": "string"
        }
      ],
      "name": "resolveMarketManually",
      "outputs": [],
      "stateMutability": "nonpayable",
      "type": "function"
    },
    {
      "inputs": [],
      "name": "sellFee",
      "outputs": [
        {
          "internalType": "uint256",
          "name": "",
          "type": "uint256"
        }
      ],
      "stateMutability": "view",
      "type": "function"
    },
    {
      "inputs": [
        {
          "internalType": "uint256",
          "name": "_marketId",
          "type": "uint256"
        },
        {
          "internalType": "bool",
          "name": "_isOptionA",
          "type": "bool"
        },
        {
          "internalType": "uint256",
          "name": "_amount",
          "type": "uint256"
        }
      ],
      "name": "sellOption",
      "outputs": [],
      "stateMutability": "nonpayable",
      "type": "function"
    },
    {
      "inputs": [
        {
          "internalType": "address",
          "name": "_newRecipient",
          "type": "address"
        }
      ],
      "name": "setFeeRecipient",
      "outputs": [],
      "stateMutability": "nonpayable",
      "type": "function"
    },
    {
      "inputs": [
        {
          "internalType": "uint256",
          "name": "_fee",
          "type": "uint256"
        }
      ],
      "name": "setMarketCreationFee",
      "outputs": [],
      "stateMutability": "nonpayable",
      "type": "function"
    },
    {
      "inputs": [
        {
          "internalType": "uint256",
          "name": "_maxPosition",
          "type": "uint256"
        }
      ],
      "name": "setMaxPosition",
      "outputs": [],
      "stateMutability": "nonpayable",
      "type": "function"
    },
    {
      "inputs": [
        {
          "internalType": "uint256",
          "name": "_minInitialPool",
          "type": "uint256"
        }
      ],
      "name": "setMinInitialPool",
      "outputs": [],
      "stateMutability": "nonpayable",
      "type": "function"
    },
    {
      "inputs": [
        {
          "internalType": "uint256",
          "name": "_minPosition",
          "type": "uint256"
        }
      ],
      "name": "setMinPosition",
      "outputs": [],
      "stateMutability": "nonpayable",
      "type": "function"
    },
    {
      "inputs": [
        {
          "internalType": "address",
          "name": "_oracle",
          "type": "address"
        },
        {
          "internalType": "address",
          "name": "_oracleUpdater",
          "type": "address"
        }
      ],
      "name": "setOracle",
      "outputs": [],
      "stateMutability": "nonpayable",
      "type": "function"
    },
    {
      "inputs": [
        {
          "internalType": "address",
          "name": "_newReferral",
          "type": "address"
        }
      ],
      "name": "setReferralContract",
      "outputs": [],
      "stateMutability": "nonpayable",
      "type": "function"
    },
    {
      "inputs": [
        {
          "internalType": "uint256",
          "name": "_window",
          "type": "uint256"
        }
      ],
      "name": "setRefundWindow",
      "outputs": [],
      "stateMutability": "nonpayable",
      "type": "function"
    },
    {
      "inputs": [
        {
          "internalType": "uint256",
          "name": "_fee",
          "type": "uint256"
        }
      ],
      "name": "setSellFee",
      "outputs": [],
      "stateMutability": "nonpayable",
      "type": "function"
    },
    {
      "inputs": [
        {
          "internalType": "uint256",
          "name": "_fee",
          "type": "uint256"
        }
      ],
      "name": "setWinningFee",
      "outputs": [],
      "stateMutability": "nonpayable",
      "type": "function"
    },
    {
      "inputs": [],
      "name": "toggleManualResolution",
      "outputs": [],
      "stateMutability": "nonpayable",
      "type": "function"
    },
    {
      "inputs": [
        {
          "internalType": "address",
          "name": "newOwner",
          "type": "address"
        }
      ],
      "name": "transferOwnership",
      "outputs": [],
      "stateMutability": "nonpayable",
      "type": "function"
    },
    {
      "inputs": [],
      "name": "unpause",
      "outputs": [],
      "stateMutability": "nonpayable",
      "type": "function"
    },
    {
      "inputs": [
        {
          "internalType": "uint256",
          "name": "_oracleMatchId",
          "type": "uint256"
        }
      ],
      "name": "validateOracleMatch",
      "outputs": [
        {
          "internalType": "bool",
          "name": "valid",
          "type": "bool"
        },
        {
          "internalType": "string",
          "name": "reason",
          "type": "string"
        }
      ],
      "stateMutability": "view",
      "type": "function"
    },
    {
      "inputs": [],
      "name": "winningFee",
      "outputs": [
        {
          "internalType": "uint256",
          "name": "",
          "type": "uint256"
        }
      ],
      "stateMutability": "view",
      "type": "function"
    },
    {
      "inputs": [
        {
          "internalType": "uint256",
          "name": "_marketId",
          "type": "uint256"
        }
      ],
      "name": "withdrawMarketFunds",
      "outputs": [],
      "stateMutability": "nonpayable",
      "type": "function"
    }
  ],
  "bytecode": "0x6080346200023a57601f62004e8038819003918201601f191683019291906001600160401b038411838510176200023f5781606092849260409687528339810103126200023a57620000518162000255565b906200006d83620000656020840162000255565b920162000255565b9162000079336200026a565b6001600255600160ff1980600354166003556101f480600a55600b5569d3c21bcecceda1000000600c5567016345785d8a000080600d55670de0b6b3a7640000600e55601355601454161760145562093a8060155560018060a01b03809116918215620001f6578116908115620001b25783169283156200017b573b15620001375762000106336200026a565b60018060a01b031991826012541617601255816011541617601155601054161760105551614bc79081620002b98239f35b835162461bcd60e51b815260206004820152601b60248201527f526566657272616c206d757374206265206120636f6e747261637400000000006044820152606490fd5b845162461bcd60e51b815260206004820152601060248201526f125b9d985b1a59081c9959995c9c985b60821b6044820152606490fd5b845162461bcd60e51b815260206004820152601660248201527f496e76616c6964206f7261636c652075706461746572000000000000000000006044820152606490fd5b845162461bcd60e51b815260206004820152601560248201527f496e76616c69642066656520726563697069656e7400000000000000000000006044820152606490fd5b600080fd5b634e487b7160e01b600052604160045260246000fd5b51906001600160a01b03821682036200023a57565b60018060a01b031990816001541660015560005460018060a01b038092168093821617600055167f8be0079c531659141344cd1fd0a4f28419497f9722a3daafe3b4186f6b6457e0600080a356fe608080604052600436101561001357600080fd5b60003560e01c90816301f9acf814613369575080630521fedb1461332157806306ad5a471461325257806310dd5686146131925780631441a5a914613169578063189cd883146130845780632472ce6a14612d205780632643076214612d025780632b14ca5614612ce45780632ef1bdfa14612cc6578063336c938514612ade5780633468a8cb14612a835780633d7bfaaa14612a655780633ec79193146129285780633f4ba83a14612894578063412448291461282057806346904840146127f75780634fd1f013146127d95780635b7baf64146125ba5780635c38eb3a146123965780635c975abb146123735780635e3924cc1461234a578063677bd9ff14611f15578063715018a614611eb057806372b513d514611e3e57806372ba257014611dd85780637364352714611dba578063778b976414611b3e57806379ba509714611a7b578063805d64a014611a525780638105c50d14610f705780638456cb5914610f16578063873f6f9e14610ec95780638b4cee0814610e5a5780638c5d80dd14610df45780638da5cb5b14610dcb5780639e9480cf14610d8c5780639f37022a14610d21578063b1283e7714610b69578063b5e9349414610b1c578063c537fbfd14610897578063cdbb52d3146107e3578063d696a1fc146107c5578063da3045d1146104cb578063da46bc3714610483578063e30c39781461045a578063e74b981b14610393578063ec97908214610375578063f2fde38b1461030a5763f7606da71461024557600080fd5b34610305576020366003190112610305576004356102616135a3565b600c5481116102b45760a0600080516020614b7283398151915291600d549080600d556040519160608352600b60608401526a36b4b72837b9b4ba34b7b760a91b608084015260208301526040820152a1005b60405162461bcd60e51b8152602060048201526024808201527f4d696e20706f736974696f6e206d757374206265203c3d206d617820706f73696044820152633a34b7b760e11b6064820152608490fd5b600080fd5b346103055760203660031901126103055761032361339f565b61032b6135a3565b60018060a01b0380911690816001600160601b0360a01b6001541617600155600054167f38d16b8cac22d99fc7c124b9cd0de2d3fa1faef420bfe791d8c362d765e22700600080a3005b34610305576000366003190112610305576020600454604051908152f35b34610305576020366003190112610305576103ac61339f565b6103b46135a3565b6001600160a01b03818116801561042357601280546001600160a01b031981169092179055604080516001600160a01b0393909216831682529190921660208301527f0bc21fe5c3ab742ff1d15b5c4477ffbacf1167e618228078fa625edebe7f331d9190819081015b0390a1005b60405162461bcd60e51b815260206004820152600f60248201526e496e76616c6964206164647265737360881b6044820152606490fd5b34610305576000366003190112610305576001546040516001600160a01b039091168152602090f35b346103055760403660031901126103055761049c613389565b600435600052600760205260406000209060018060a01b03166000526020526020604060002054604051908152f35b34610305576060366003190112610305576004356104e76134b4565b6044356104f261375a565b6104fa613716565b61050760045484106135fb565b826000526020906005825261053360ff60076040600020015460081c1661052d8161349b565b1561363f565b836000526005825261055360ff60076040600020015460101c1615613682565b8360005260058252604060002091610570600684015442106136ce565b81156107815783156107625784600052600681526040600020336000528152816040600020545b10610727578315610716576105c46105b38360098601546137ae565b851561070b576009850154906137c1565b80156106d3576105e46127106105dc600b54846137ae565b0480926137e1565b938515610698576009908760005260068452604060002033600052845260406000206106118682546137e1565b90550161061f8482546137e1565b90555b8581610688575b5050610645600080808087335af161063f6137ee565b5061381e565b604051931515845283015260408201524260608201527fcc37ccc388ee04effcd4f614fb545af35a9e780c703070097157b487dc0bd9e960803392a36001600255005b6106919161458a565b8585610629565b600a908760005260078452604060002033600052845260406000206106be8682546137e1565b9055016106cc8482546137e1565b9055610622565b60405162461bcd60e51b815260048101839052601060248201526f14185e5bdd5d081d1bdbc81cdb585b1b60821b6044820152606490fd5b600a850154906137c1565b6105c46105b383600a8601546137ae565b6064906040519062461bcd60e51b825260048201526014602482015273496e73756666696369656e742062616c616e636560601b6044820152fd5b8460005260078152604060002033600052815281604060002054610597565b6064906040519062461bcd60e51b82526004820152601d60248201527f416d6f756e74206d7573742062652067726561746572207468616e20300000006044820152fd5b34610305576000366003190112610305576020600e54604051908152f35b34610305576020366003190112610305576004356107ff6135a3565b80156108525760a0600080516020614b7283398151915291600e549080600e556040519160608352600e60608401526d1b5a5b925b9a5d1a585b141bdbdb60921b608084015260208301526040820152a1005b60405162461bcd60e51b815260206004820152601c60248201527f4d696e20696e697469616c20706f6f6c206d757374206265203e2030000000006044820152606490fd5b34610305576060366003190112610305576004356001600160401b03602435818111610305576108cb90369060040161340c565b906108d46134a5565b6108dc6135a3565b6108e461375a565b6108f160045485106135fb565b836000526020916005835261091760ff60076040600020015460081c1661052d8161349b565b846000526005835261093760ff60076040600020015460101c1615613682565b84600052600583526040600020906109886007830162010000815486600014610b125761ff0060025b6109698161349b565b60081b169062ffff0019161717815584600014610b0a57600390613c0f565b8451600b8301918111610af4576109a9816109a384546134c3565b84613bb2565b84601f8211600114610a8c579080600d949392600091610a81575b508160011b916000199060031b1c19161790555b42600c8201550180546001600160a01b0319163317905515610a3f577feac73144d2c086681d5df2bd835214b85225d6d1dcf1bcc011b12bce16adcbe591610a2e91604051928392604084526040840190613476565b9033908301520390a25b6001600255005b600290610a73600080516020614b528339815191529360405193849360008552840152608060408401526080830190613476565b3360608301520390a2610a38565b9050870151896109c4565b601f1982169083600052866000209160005b88828210610ade575050918391600d96959460019410610ac5575b5050811b0190556109d8565b89015160001960f88460031b161c191690558980610ab9565b600184958293958d015181550194019201610a9e565b634e487b7160e01b600052604160045260246000fd5b600290613c0f565b61ff006001610960565b3461030557604036600319011261030557610b35613389565b600435600052600960205260406000209060018060a01b0316600052602052602060ff604060002054166040519015158152f35b346103055760203660031901126103055760043560005260056020526040600020610b93816134fd565b90610ba0600182016134fd565b90610bad600282016134fd565b91610bba600383016134fd565b610bc6600484016134fd565b90610bd3600585016134fd565b946006850154916007860154600887015497600988015495600a89015493600b8a01610bfe906134fd565b95600c8b01549a600160a01b6001900390600d01541699604051809e6102208083528201610c2b91613476565b908082039060200152610c3d91613476565b8d810360408f0152610c4e91613476565b8c810360608e0152610c5f91613476565b8b810360808d0152610c7091613476565b8a810360a08c0152610c8191613476565b9360c08a015260ff8116610c948161349b565b60e08a01528060081c60ff16610ca98161349b565b6101008a01528060101c60ff1615156101208a015260181c60ff16936004851015610d0b578897610cfa956101408a01526101608901526101808801526101a08701528582036101c0870152613476565b916101e08401526102008301520390f35b634e487b7160e01b600052602160045260246000fd5b3461030557602036600319011261030557600080516020614b7283398151915260a0600435610d4e6135a3565b6013549080601355604051916060835260116060840152706d61726b65744372656174696f6e46656560781b608084015260208301526040820152a1005b3461030557602036600319011261030557610da8600435614a00565b90610dc760405192839215158352604060208401526040830190613476565b0390f35b34610305576000366003190112610305576000546040516001600160a01b039091168152602090f35b3461030557602036600319011261030557600080516020614b7283398151915260a0600435610e216135a3565b60155490806015556040519160608352600c60608401526b726566756e6457696e646f7760a01b608084015260208301526040820152a1005b3461030557602036600319011261030557600080516020614b7283398151915260a0600435610e876135a3565b610e956113888211156149bf565b600b549080600b556040519160608352600760608401526673656c6c46656560c81b608084015260208301526040820152a1005b3461030557604036600319011261030557610ee2613389565b600435600052600860205260406000209060018060a01b0316600052602052602060ff604060002054166040519015158152f35b3461030557600036600319011261030557610f2f6135a3565b610f37613716565b600160ff1960035416176003557f62e78cea01bee320cd4e420270b5ea74000d11b0c9f74754ebdbfc544b05a2586020604051338152a1005b610100366003190112610305576004356001600160401b03811161030557610f9c90369060040161340c565b6024356001600160401b03811161030557610fbb90369060040161340c565b6044356001600160401b03811161030557610fda90369060040161340c565b6064356001600160401b03811161030557610ff990369060040161340c565b9260a4356001600160401b0381116103055761101990369060040161340c565b9260c4356001600160401b0381116103055761103990369060040161340c565b6110416135a3565b61104961375a565b601354600e546001600160ff1b0381168103611a3c5761106c9060011b82613709565b34106119e2576084351561199d5783511561195857825115158061194e575b156119095760e4356117e9575b6012546000918291829182916001600160a01b03165af16110b76137ee565b50156117a457600454946110ca86613b8c565b60045585600052600560205260406000209684516001600160401b038111610af457611100816110fa8b546134c3565b8b613bb2565b806020601f821160011461173d57600091611732575b508160011b916000199060031b1c19161788555b83516001600160401b038111610af4576111548161114b60018c01546134c3565b60018c01613bb2565b806020601f82116001146116c5576000916116ba575b508160011b916000199060031b1c19161760018901555b85516001600160401b038111610af4576111ab816111a260028c01546134c3565b60028c01613bb2565b806020601f821160011461164d57600091611642575b508160011b916000199060031b1c19161760028901555b80516001600160401b038111610af457611202816111f960038c01546134c3565b60038c01613bb2565b806020601f82116001146115d5576000916115ca575b508160011b916000199060031b1c19161760038901555b81516001600160401b038111610af4576112598161125060048c01546134c3565b60048c01613bb2565b806020601f821160011461155d57600091611552575b508160011b916000199060031b1c19161760048901555b8251956001600160401b038711610af45788876112b68a996112ad600560209e01546134c3565b60058501613bb2565b8a601f82116001146114a95761142a9461140061010098956113f261141c968e877f1415d76f5fb5a51e187a64e6074cd56be24eec8b7aff86175831c8a6d9efaaa39f9e9c9861140e9860009161149e575b508160011b916000199060031b1c19161760058301555b600a61132d60843542613709565b6006840190815560078401805462ffffff191681559093906113599060e43515610b0a57600190613c0f565b60e4356008820155600e5491818360098194015501558160005260206006905260406000203360005260205280604060002055816000526020600790526040600020336000526020526040600020556000526020600990526040600020336000526020526040600020600160ff1982541617905554996113e46040519d8d8f9e8f9081520190613476565b8c810360208e015290613476565b908a820360408c0152613476565b9088820360608a0152613476565b908682036080880152613476565b9084820360a0860152613476565b9060c083015260e43560e08301520390a280600e54604051600181528185820152426040820152827f5cd2b00a317c98f25c74367637b42e02b16439ebb946569bf13cc434f614a1fd918260603392a360405191600083528583015242604083015260603392a36001600255604051908152f35b90508b015138611308565b600583016000528b6000209060005b601f198416811061153857509461140061010098956113f261141c968e60017f1415d76f5fb5a51e187a64e6074cd56be24eec8b7aff86175831c8a6d9efaaa39f9e9c9861140e9861142a9d82601f1981161061151f575b5050811b01600583015561131f565b8d015160001960f88460031b161c191690553880611510565b8189015183558c9b50600190920191908d01908d016114b8565b90508301518a61126f565b915060048a0160005260206000206000925b601f19831684106115b2576001935082601f19811610611599575b5050811b016004890155611286565b85015160001960f88460031b161c191690558a8061158a565b8581015182556020938401936001909201910161156f565b90508201518a611218565b915060038a0160005260206000206000925b601f198316841061162a576001935082601f19811610611611575b5050811b01600389015561122f565b84015160001960f88460031b161c191690558a80611602565b848101518255602093840193600190920191016115e7565b90508701518a6111c1565b915060028a0160005260206000206000925b601f19831684106116a2576001935082601f19811610611689575b5050811b0160028901556111d8565b89015160001960f88460031b161c191690558a8061167a565b8981015182556020938401936001909201910161165f565b90508501518a61116a565b915060018a0160005260206000206000925b601f198316841061171a576001935082601f19811610611701575b5050811b016001890155611181565b87015160001960f88460031b161c191690558a806116f2565b878101518255602093840193600190920191016116d7565b90508601518a611116565b91508960005260206000206000925b601f198316841061178c576001935082601f19811610611773575b5050811b01885561112a565b88015160001960f88460031b161c191690558a80611767565b8881015182556020938401936001909201910161174c565b60405162461bcd60e51b815260206004820152601c60248201527f4372656174696f6e20666565207472616e73666572206661696c6564000000006044820152606490fd5b600f54604051633d092b3d60e01b815260e435600482015290600090829060249082906001600160a01b03165afa9081156118fd576000916118da575b5060c08101516020815191012061183b613b68565b6020815191012003611896576060015142106110985760405162461bcd60e51b815260206004820152601e60248201527f4d61746368206d75737420737461727420696e207468652066757475726500006044820152606490fd5b606460405162461bcd60e51b815260206004820152602060248201527f4d61746368206d75737420626520696e207570636f6d696e67207374617475736044820152fd5b6118f791503d806000833e6118ef81836133d0565b810190613a36565b88611826565b6040513d6000823e3d90fd5b60405162461bcd60e51b815260206004820152601760248201527f4f7074696f6e732063616e6e6f7420626520656d7074790000000000000000006044820152606490fd5b508451151561108b565b60405162461bcd60e51b815260206004820152601860248201527f5175657374696f6e2063616e6e6f7420626520656d70747900000000000000006044820152606490fd5b60405162461bcd60e51b815260206004820152601960248201527f4475726174696f6e206d75737420626520706f736974697665000000000000006044820152606490fd5b60405162461bcd60e51b815260206004820152602c60248201527f496e73756666696369656e74204156415820666f72206665657320616e64206960448201526b6e697469616c20706f6f6c7360a01b6064820152608490fd5b634e487b7160e01b600052601160045260246000fd5b34610305576000366003190112610305576011546040516001600160a01b039091168152602090f35b34610305576000366003190112610305576001546001600160a01b033381831603611ae7576001600160601b0360a01b8092166001556000549133908316176000553391167f8be0079c531659141344cd1fd0a4f28419497f9722a3daafe3b4186f6b6457e0600080a3005b60405162461bcd60e51b815260206004820152602960248201527f4f776e61626c6532537465703a2063616c6c6572206973206e6f7420746865206044820152683732bb9037bbb732b960b91b6064820152608490fd5b604036600319011261030557600435611b556134b4565b611b5d61375a565b611b65613716565b611b7260045483106135fb565b81600052602060058152611b9760ff60076040600020015460081c1661052d8161349b565b8260005260058152611bb760ff60076040600020015460101c1615613682565b82600052600581526040600020611bd3600682015442106136ce565b600d543410611d8057600c5490813411611d46578315611d3257611bfb346009830154613709565b915b8211611ced578315611cbe57600990856000526006845260406000203360005284526040600020611c2f348254613709565b905501555b8260005260098152604060002033600052815260ff6040600020541615611c96575b604051911515825234908201524260408201527f5cd2b00a317c98f25c74367637b42e02b16439ebb946569bf13cc434f614a1fd60603392a36001600255005b826000526009815260406000203360005281526040600020600160ff19825416179055611c56565b600a90856000526007845260406000203360005284526040600020611ce4348254613709565b90550155611c34565b60405162461bcd60e51b815260048101849052601a60248201527f506f6f6c20776f756c6420657863656564206d61782073697a650000000000006044820152606490fd5b611d4034600a830154613709565b91611bfd565b60405162461bcd60e51b8152600481018490526012602482015271506f736974696f6e20746f6f206c6172676560701b6044820152606490fd5b60405162461bcd60e51b8152600481018390526012602482015271141bdcda5d1a5bdb881d1bdbc81cdb585b1b60721b6044820152606490fd5b34610305576000366003190112610305576020601554604051908152f35b34610305576040366003190112610305576040600435611df6613389565b816000526006602052826000209060018060a01b0316908160005260205282600020549160005260076020528260002090600052602052816000205482519182526020820152f35b3461030557602036600319011261030557600080516020614b7283398151915260a0600435611e6b6135a3565b611e796113888211156149bf565b600a549080600a556040519160608352600a60608401526977696e6e696e6746656560b01b608084015260208301526040820152a1005b3461030557600036600319011261030557611ec96135a3565b600180546001600160a01b0319908116909155600080549182168155906001600160a01b03167f8be0079c531659141344cd1fd0a4f28419497f9722a3daafe3b4186f6b6457e08280a3005b34610305576020806003193601126103055760043590611f3361375a565b611f4060045483106135fb565b81600052600581526040600020906007808301805460ff8160101c161561230f5760ff81611f7f600183819560081c16611f798161349b565b1461385c565b87600052600886526040600020336000528652611fa382604060002054161561389b565b16611fad8161349b565b036122c7578460005260068352604060002033600052835260406000205493611fd78515156138d9565b611ff5600a600983015492611fed84151561391a565b015482613709565b801561229057906120098661200e936137ae565b6137c1565b9384156122555760ff7f5d65a272414584c001aa531e37121612a5b4b32aefddfe422f936093de33b10f9493926001928088116000146122445761271061206461205b61206c938b6137e1565b600a54906137ae565b0480986137e1565b968881612234575b505054166120818161349b565b0361219a578460005260068252604060002033600052825260006040812055846000528082526040600020336000528252604060002054612138575b505b836000526008815260406000203360005281526040600020600160ff198254161790556120f6600080808087335af161063f6137ee565b8360405184815242838201527f6d96bc67e21ee11dbabcb74ef67fc380f16c21a20fb07a3c3a46bed3ee6b682060403392a36040519283523392a36001600255005b846000528082526040600020336000528252846040600020546040519081527f18cd9054011fa6fe5511881ae9a3094b48737620d95d71bf62a689d32240ada4843392a3846000528152604060002033600052815260006040812055846120bd565b84600052815260406000203360005281526000604081205583600052600681526040600020336000528152604060002054156120bf5783600052600681526040600020336000528152836040600020546040519081527f18cd9054011fa6fe5511881ae9a3094b48737620d95d71bf62a689d32240ada4833392a383600052600681526040600020336000528152600060408120556120bf565b61223d9161458a565b8888612074565b5061206c612710612064600061205b565b60405162461bcd60e51b81526004810185905260136024820152724e6f207061796f757420617661696c61626c6560681b6044820152606490fd5b60405162461bcd60e51b815260048101869052600f60248201526e139bc81dda5b9b9a5b99c81c1bdbdb608a1b6044820152606490fd5b846000528183526040600020336000528352600961230a604060002054956122f08715156138d9565b600a81015492839161230383151561391a565b0154613709565b611ff5565b60405162461bcd60e51b815260048101859052601360248201527213585c9ad95d081b9bdd081c995cdbdb1d9959606a1b6044820152606490fd5b3461030557600036600319011261030557600f546040516001600160a01b039091168152602090f35b3461030557600036600319011261030557602060ff600354166040519015158152f35b34610305576040366003190112610305576123af61339f565b6123b7613389565b906123c06135a3565b6001600160a01b03908116801561257c5781831680156125375760405163d07f07b760e01b8152600081600481865afa90816124ab575b506124415760405162461bcd60e51b815260206004820152601d60248201527f496e76616c6964206f7261636c6520696d706c656d656e746174696f6e0000006044820152606490fd5b600f80546001600160a01b03199081169093179055601180549283169091179055604080516001600160a01b0393909216831682529190921660208301527fef8362a42c8773040e07b2a98619d62daca5ea9ad652badf7fd8265281939bd491908190810161041e565b3d806000833e6124bb81836133d0565b810160209182818303126103055780516001600160401b0391828211610305570182601f82011215610305578051918211610af45783808360051b9360405190612507838701836133d0565b81520192820101928311610305578301905b828210612528575050506123f7565b81518152908301908301612519565b60405162461bcd60e51b815260206004820152601e60248201527f496e76616c6964206f7261636c652075706461746572206164647265737300006044820152606490fd5b60405162461bcd60e51b8152602060048201526016602482015275496e76616c6964206f7261636c65206164647265737360501b6044820152606490fd5b3461030557602080600319360112610305576004356125d761375a565b6125e460045482106135fb565b8060005260058252600260ff60076040600020015460081c166126068161349b565b0361279e578060005260088252604060002033600052825261263060ff604060002054161561389b565b8060005260068252604060002033600052825260406000205481600052600783526040600020336000528352604060002054908015801590612795575b1561275a579061267c91613709565b9181600052600681526040600020336000528152600060408120558160005260078152604060002033600052815260006040812055816000526008815260406000203360005281526040600020600160ff19825416179055600080808086335af16126e56137ee565b501561271d577ff3f402280ef0a7905e124aa621b65eaeb2725c343e8b36d398ed78c29daf285c906040519384523393a36001600255005b6064906040519062461bcd60e51b8252600482015260166024820152751499599d5b99081d1c985b9cd9995c8819985a5b195960521b6044820152fd5b60405162461bcd60e51b81526004810185905260136024820152724e6f20726566756e6420617661696c61626c6560681b6044820152606490fd5b5081151561266d565b60405162461bcd60e51b815260048101839052601360248201527213585c9ad95d081b9bdd081c99599d5b991959606a1b6044820152606490fd5b34610305576000366003190112610305576020600d54604051908152f35b34610305576000366003190112610305576012546040516001600160a01b039091168152602090f35b346103055760603660031901126103055760243561283c6134a5565b600435600052600560205260406000209060001461288a5760090154905b612710808202908282041482151715611a3c5761287c61288292602094613709565b906137c1565b604051908152f35b600a01549061285a565b34610305576000366003190112610305576128ad6135a3565b60035460ff8116156128ec5760ff19166003557f5db9ee0a495bf2e6ff9c91a7834c1ba4fdd244a5e8aa4e537bd38aeae4b073aa6020604051338152a1005b60405162461bcd60e51b815260206004820152601460248201527314185d5cd8589b194e881b9bdd081c185d5cd95960621b6044820152606490fd5b346103055760203660031901126103055760043560005260056020526040600020600681015460078201549060ff8216918060081c60ff1690600985015490600a86015492612976876134fd565b95612983600189016134fd565b97612990600282016134fd565b9061299d600382016134fd565b6129a9600483016134fd565b916005016129b6906134fd565b926040519b8c9b8c6101808091528d016129cf91613476565b8c810360208e01526129e091613476565b8b810360408d01526129f191613476565b8a810360608c0152612a0291613476565b89810360808b0152612a1391613476565b88810360a08a0152612a2491613476565b9560c0880152612a338161349b565b60e0870152612a418161349b565b61010086015260101c60ff1615156101208501526101408401526101608301520390f35b34610305576000366003190112610305576020600c54604051908152f35b3461030557600036600319011261030557612a9c6135a3565b7fa3cb6752f9973fccc281e8c4bd3b15aa0f201bf7c8d8ac30f7e7721f830afd27602060145460ff8082161516809160ff1916176014556040519015158152a1005b34610305576020806003193601126103055760043590612afc6135a3565b612b0461375a565b612b1160045483106135fb565b81600052600581526040600020600981018054612b34600a840191825490613709565b918215612c8a5760008093818094818095555560078601630201010063ffffff0019825416179055600d600b870196612b6d88546134c3565b601f8111612c6c575b507f456d657267656e6379207769746864726177616c206279206f776e657200003a90975542600c88015590950180546001600160a01b0319163317905580547f456d657267656e6379207769746864726177616c206279206f776e657200000095906001600160a01b03165af1612bec6137ee565b5015612c3357600080516020614b528339815191529160c0916002604051926000845283015260806040830152601d608083015260a0820152336060820152a26001600255005b60405162461bcd60e51b815260048101839052601160248201527015da5d1a191c985dd85b0819985a5b1959607a1b6044820152606490fd5b888552898520612c8491601f0160051c810190613b9b565b8a612b76565b60405162461bcd60e51b81526004810186905260146024820152734e6f2066756e647320746f20776974686472617760601b6044820152606490fd5b34610305576000366003190112610305576020601354604051908152f35b34610305576000366003190112610305576020600b54604051908152f35b34610305576000366003190112610305576020600a54604051908152f35b34610305576060366003190112610305576004356024908135916003831015610305576001600160401b039260443584811161030557612d6490369060040161340c565b612d6c6135a3565b612d7461375a565b612d8160045485106135fb565b8360005260209260058452612da760ff60076040600020015460081c1661052d8161349b565b8460005260058452612dc760ff60076040600020015460101c1615613682565b8460005260058452612de360066040600020015442101561385c565b60ff601454161561304157612df78361349b565b8215612ffe57846000526005845260ff60076040600020015460181c166004811015612fe957600203612fb0578460005260058452604060002090600782016201010062ffff0019825416178155612e4f8582613bf7565b630200000063ff00000019825416179055600b8201908351978811612f9c5750612e8387612e7d83546134c3565b83613bb2565b8496601f8111600114612f225791600d9183612f079594600080516020614b52833981519152999a600091612f17575b508160011b916000199060031b1c19161790555b42600c82015501336001600160601b0360a01b82541617905560026040519484612ef1879661349b565b8552840152608060408401526080830190613476565b3360608301520390a26001600255005b90508501518b612eb3565b601f19811682600052866000209060005b818110612f85575082600d9492600080516020614b528339815191529a9b612f0798979560019410612f6c575b5050811b019055612ec7565b87015160001960f88460031b161c191690558b80612f60565b868b01518355998801996001909201918801612f33565b634e487b7160e01b60009081526041600452fd5b8360136064926040519262461bcd60e51b8452600484015282015272139bdd0818481b585b9d585b081b585c9ad95d606a1b6044820152fd5b50634e487b7160e01b60009081526021600452fd5b83601c6064926040519262461bcd60e51b845260048401528201527f43616e6e6f74207265736f6c766520746f20756e7265736f6c766564000000006044820152fd5b83601a6064926040519262461bcd60e51b845260048401528201527f4d616e75616c207265736f6c7574696f6e2064697361626c65640000000000006044820152fd5b346103055760208060031936011261030557601154600435906001600160a01b03163303613126576005610a38926130ba61375a565b6130c760045484106135fb565b826000528181526130e960ff60076040600020015460081c1661052d8161349b565b8260005281815261310860ff60076040600020015460101c1615613682565b826000525261312160066040600020015442101561385c565b613c53565b6064826040519062461bcd60e51b825280600483015260248201527f43616c6c6572206973206e6f7420746865206f7261636c6520757064617465726044820152fd5b34610305576000366003190112610305576010546040516001600160a01b039091168152602090f35b34610305576020366003190112610305576004356131ae6135a3565b600d5481106132015760a0600080516020614b7283398151915291600c549080600c556040519160608352600b60608401526a36b0bc2837b9b4ba34b7b760a91b608084015260208301526040820152a1005b60405162461bcd60e51b8152602060048201526024808201527f4d617820706f736974696f6e206d757374206265203e3d206d696e20706f73696044820152633a34b7b760e11b6064820152608490fd5b346103055760203660031901126103055761326b61339f565b6132736135a3565b6001600160a01b0381169081156132dc573b156132a2576001600160601b0360a01b6010541617601055600080f35b60405162461bcd60e51b8152602060048201526012602482015271135d5cdd08189948184818dbdb9d1c9858dd60721b6044820152606490fd5b60405162461bcd60e51b815260206004820152601860248201527f496e76616c696420726566657272616c206164647265737300000000000000006044820152606490fd5b346103055760403660031901126103055761333a613389565b600435600052600660205260406000209060018060a01b03166000526020526020604060002054604051908152f35b346103055760003660031901126103055760209060ff6014541615158152f35b602435906001600160a01b038216820361030557565b600435906001600160a01b038216820361030557565b604081019081106001600160401b03821117610af457604052565b90601f801991011681019081106001600160401b03821117610af457604052565b6001600160401b038111610af457601f01601f191660200190565b81601f8201121561030557803590613423826133f1565b9261343160405194856133d0565b8284526020838301011161030557816000926020809301838601378301015290565b60005b8381106134665750506000910152565b8181015183820152602001613456565b9060209161348f81518092818552858086019101613453565b601f01601f1916010190565b60031115610d0b57565b60443590811515820361030557565b60243590811515820361030557565b90600182811c921680156134f3575b60208310146134dd57565b634e487b7160e01b600052602260045260246000fd5b91607f16916134d2565b9060405191826000825492613511846134c3565b908184526001948581169081600014613580575060011461353d575b505061353b925003836133d0565b565b9093915060005260209081600020936000915b81831061356857505061353b9350820101388061352d565b85548884018501529485019487945091830191613550565b91505061353b94506020925060ff191682840152151560051b820101388061352d565b6000546001600160a01b031633036135b757565b606460405162461bcd60e51b815260206004820152602060248201527f4f776e61626c653a2063616c6c6572206973206e6f7420746865206f776e65726044820152fd5b1561360257565b60405162461bcd60e51b815260206004820152601560248201527413585c9ad95d08191bd95cc81b9bdd08195e1a5cdd605a1b6044820152606490fd5b1561364657565b60405162461bcd60e51b81526020600482015260146024820152734d61726b6574206973206e6f742061637469766560601b6044820152606490fd5b1561368957565b60405162461bcd60e51b815260206004820152601760248201527f4d61726b657420616c7265616479207265736f6c7665640000000000000000006044820152606490fd5b156136d557565b60405162461bcd60e51b815260206004820152600c60248201526b13585c9ad95d08195b99195960a21b6044820152606490fd5b91908201809211611a3c57565b60ff6003541661372257565b60405162461bcd60e51b815260206004820152601060248201526f14185d5cd8589b194e881c185d5cd95960821b6044820152606490fd5b60028054146137695760028055565b60405162461bcd60e51b815260206004820152601f60248201527f5265656e7472616e637947756172643a207265656e7472616e742063616c6c006044820152606490fd5b81810292918115918404141715611a3c57565b81156137cb570490565b634e487b7160e01b600052601260045260246000fd5b91908203918211611a3c57565b3d15613819573d906137ff826133f1565b9161380d60405193846133d0565b82523d6000602084013e565b606090565b1561382557565b60405162461bcd60e51b815260206004820152600f60248201526e151c985b9cd9995c8819985a5b1959608a1b6044820152606490fd5b1561386357565b60405162461bcd60e51b815260206004820152601060248201526f13585c9ad95d081b9bdd08195b99195960821b6044820152606490fd5b156138a257565b60405162461bcd60e51b815260206004820152600f60248201526e105b1c9958591e4818db185a5b5959608a1b6044820152606490fd5b156138e057565b60405162461bcd60e51b81526020600482015260126024820152714e6f2077696e6e696e672062616c616e636560701b6044820152606490fd5b1561392157565b60405162461bcd60e51b815260206004820152600d60248201526c139bc81d1bdd185b081c1bdbdb609a1b6044820152606490fd5b81601f8201121561030557805161396c816133f1565b9261397a60405194856133d0565b81845260208284010111610305576139989160208085019101613453565b90565b91909160608184031261030557604051906001600160401b03906060830182811184821017610af4576040528294815183811161030557816139de918401613956565b8452602082015183811161030557816139f8918401613956565b6020850152604082015192831161030557604092613a169201613956565b910152565b5190811515820361030557565b519060ff8216820361030557565b6020818303126103055780516001600160401b039182821161030557016101609283828203126103055760405193840184811084821117610af4576040528151845260208201518381116103055781613a9091840161399b565b602085015260408201518381116103055781613aad91840161399b565b60408501526060820151606085015260808201518381116103055781613ad4918401613956565b6080850152613ae560a08301613a1b565b60a085015260c08201518381116103055781613b02918401613956565b60c0850152613b1360e08301613a28565b60e0850152610100613b26818401613a28565b90850152610120808301518481116103055782613b44918501613956565b90850152610140928383015190811161030557613b619201613956565b9082015290565b60405190613b75826133b5565b60088252677570636f6d696e6760c01b6020830152565b6000198114611a3c5760010190565b818110613ba6575050565b60008155600101613b9b565b9190601f8111613bc157505050565b61353b926000526020600020906020601f840160051c83019310613bed575b601f0160051c0190613b9b565b9091508190613be0565b90613c018161349b565b60ff80198354169116179055565b906004811015610d0b5763ff00000082549160181b169063ff0000001916179055565b60405190613c3f826133b5565b60058252647465616d3160d81b6020830152565b600081815260209060058252604090818120916007830192835460ff8160181c16916004908184101561449b576001809403614461576008810196875493841561442957600f548751633d092b3d60e01b815280860187905298956024959493929187908b90889082906001600160a01b03165afa998a1561441f57879a614403575b5060a08a0151156143cb5760c08a01518c8151910120906818dbdb5c1b195d195960ba1b8d8b51613d06816133b5565b6009815201526818d85b98d95b1b195960ba1b8d8b51613d25816133b5565b60098152015268199bdc99995a5d195960ba1b8d8b51613d44816133b5565b6009815201527f6216ba39af4188a6d7c765710d7e6075007c3444b59a22a973d1b958c43e60bb821480156143a2575b8015614379575b1561433f577fe59e9111f1b9511a1ea11943d5b8f06ca0a56004b3dce0c2ac827247ee014552821480928115614315575b506140e157505050505061012086018051898151910120613dcb613c32565b8a8151910120148015614096575b1561406457603e81613ed692518b8151910120613df4613c32565b8051908d01200361405957613e0b879a5b546144ae565b905198613e2e60ff610100613e258260e0860151166144ae565b930151166144ae565b908c613ea98b519c8d9569026b0ba31b41024a21d160b51b84880152613e5d8151809286602a8b019101613453565b860169016102bb4b73732b91d160b51b602a820152613e858251809386603485019101613453565b0191680161029b1b7b9329d160bd1b60348401528351938491603d85019101613453565b01602d60f81b603d820152613ec78d83519384918785019101613453565b0103601e8101895201876133d0565b8883526005885284832092600784016201010062ffff0019825416178155613efe8982613bf7565b630100000063ff00000019825416179055600b8401928751926001600160401b038411614048575050613f3b82613f3585546134c3565b85613bb2565b8890601f8311600114613fcf5793613fb9969383600080516020614b528339815191529b9a999794600d9460809891613fc4575b50600019600383901b1c191690851b1790555b42600c8201550180546001600160a01b031916331790558151968796613fa78161349b565b87528601528401526080830190613476565b3360608301520390a2565b905088015138613f6f565b90601f1983168483528a8320925b8181106140335750938684600d9460809894600080516020614b528339815191529e9d9c9a97613fb99c991061401a575b5050811b019055613f82565b8a015160001960f88460031b161c19169055388061400e565b89830151845592870192918b01918b01613fdd565b634e487b7160e01b83526041905281fd5b613e0b60029a613e05565b50600e6064928987519362461bcd60e51b85528401528201526d24b73b30b634b2103bb4b73732b960911b6044820152fd5b507f989d8eb8b3ea6220608b470179a0b895234ee665aada929d0434e26c2e1c29ee81518a8151910120643a32b0b69960d91b8b89516140d5816133b5565b60058152015214613dd9565b620100009394979b506141a7916140f96034926144ae565b90156142e1578d6101408c5161410e816133b5565b60138152720b0814dd185d1d5cce8810d85b98d95b1b1959606a1b838201529d5b0151906141988d519e8f9469026b0ba31b41024a21d160b51b8487015261415f8151809286602a8a019101613453565b85016141748251809386602a85019101613453565b019169016102932b0b9b7b71d160b51b602a84015283519384918785019101613453565b0103601481018c52018a6133d0565b62ff00001916179055600b8301918651916001600160401b0383116142d05750506141d6816109a384546134c3565b87601f821160011461425757608093613fb99693838a999794600d94600080516020614b528339815191529d9c9161424c575b50600019600383901b1c191690851b1790555b42600c82015501336001600160601b0360a01b825416179055815196879687528601528401526080830190613476565b905088015138614209565b82885288882090601f198316895b8181106142bb5750938684600d9460809894600080516020614b528339815191529e9d9c9a97613fb99c99106142a2575b5050811b01905561421c565b8a015160001960f88460031b161c191690553880614296565b89830151845592870192918b01918b01614265565b634e487b7160e01b89526041905287fd5b8d6101408c516142f0816133b5565b60138152720b0814dd185d1d5cce88119bdc99995a5d1959606a1b838201529d61412f565b7fea27ef8830947586a12feaef28bbbf2bfb7b9494a50c84a1cfb3db52fa2ea76991501438613dac565b50885162461bcd60e51b81528086018d905260148188015273496e76616c6964206d617463682073746174757360601b6044820152606490fd5b507fea27ef8830947586a12feaef28bbbf2bfb7b9494a50c84a1cfb3db52fa2ea7698214613d7b565b507fe59e9111f1b9511a1ea11943d5b8f06ca0a56004b3dce0c2ac827247ee0145528214613d74565b885162461bcd60e51b81528086018d90526013818801527213585d18da081b9bdd0818dbdb5c1b195d1959606a1b6044820152606490fd5b614418919a503d8089833e6118ef81836133d0565b9838613cd6565b89513d89823e3d90fd5b865162461bcd60e51b81528085018b90526012602482015271139bc81bdc9858db19481b585d18da08125160721b6044820152606490fd5b845162461bcd60e51b81528083018990526014602482015273139bdd08185b881bdc9858db19481b585c9ad95d60621b6044820152606490fd5b634e487b7160e01b865260218252602486fd5b801561456c5780816000925b61455657506144c8826133f1565b916144d660405193846133d0565b80835281601f196144e6836133f1565b013660208601375b6144f757505090565b90600019820190828211611a3c578192600a926030908484068201809211611a3c57865111156145405760f81b6001600160f81b03191660001a908501601f01530490816144ee565b634e487b7160e01b600052603260045260246000fd5b9091614563600a91613b8c565b929104806144ba565b50604051614579816133b5565b60018152600360fc1b602082015290565b60009181156149855760018060a01b038060105416936040918251948594630f87f98760e31b865285600498338a830152602097889160249a8b915afa90811561497b57908491869161493d575b5016908482156148e657506010548651634e15266760e11b8082528b8201859052929186169089818c81855afa9081156148335788916148b1575b50156148a3578751632eaf993f60e21b81528b810185905289818c81855afa908115614833578891614874575b5061464f612710915b876137ae565b049261465b84876137e1565b956146668588613709565b0361483d57836146e6575b505050505080614685575b50505050505050565b828092918192601254165af16146996137ee565b50156146a75780808061467c565b5162461bcd60e51b815292830152601c908201527f506c6174666f726d20666565207472616e73666572206661696c6564000000006044820152606490fd5b8851908152848c82015289818c81855afa9081156148335788916147fa575b5061479c575b508580808085875af161471c6137ee565b501561475a578651918252878201527fd1fa2dc170f002ee44144d045ac7247c102dbb99710493203703a22993987de2863392a33880808080614671565b865162461bcd60e51b8152808b01899052601c818b01527f526566657272657220666565207472616e73666572206661696c6564000000006044820152606490fd5b803b156147f657868460448d838e95888e519788968795630160f7c960e71b87528601528401525af11561470b576001600160401b0381979297116147e4578752943861470b565b634e487b7160e01b825260418b528982fd5b8680fd5b90508981813d831161482c575b61481181836133d0565b810103126148285761482290613a1b565b38614705565b8780fd5b503d614807565b89513d8a823e3d90fd5b885162461bcd60e51b8152808d018b90526012818d01527108ccaca40e6e0d8d2e840dad2e6dac2e8c6d60731b6044820152606490fd5b90508981813d831161489c575b61488b81836133d0565b81010312614828575161464f614640565b503d614881565b61271061464f6101f4614649565b90508981813d83116148df575b6148c881836133d0565b81010312614828576148d990613a1b565b38614613565b503d6148be565b9384939150839250601254165af16148fc6137ee565b50156149085750505050565b5162461bcd60e51b81529283015260139082015272119959481d1c985b9cd9995c8819985a5b1959606a1b6044820152606490fd5b809250888092503d8311614974575b61495681836133d0565b8101031261497057518381168103614970578390386145d8565b8480fd5b503d61494c565b86513d87823e3d90fd5b60405162461bcd60e51b81526020600482015260126024820152714665652063616e6e6f74206265207a65726f60701b6044820152606490fd5b156149c657565b60405162461bcd60e51b8152602060048201526012602482015271466565206d757374206265203c3d2035302560701b6044820152606490fd5b600f54604051633d092b3d60e01b81526004810192909252600091908290829060249082906001600160a01b03165afa829181614b35575b50614a6f575090604051614a4b816133b5565b601481527313585d18da08191bd95cc81b9bdd08195e1a5cdd60621b602082015290565b60c081015160208151910120614a83613b68565b6020815191012003614afa5760600151421015614ac85750600190604051614aaa816133b5565b600e81526d13585d18da081a5cc81d985b1a5960921b602082015290565b90604051614ad5816133b5565b601581527413585d18da08185b1c9958591e481cdd185c9d1959605a1b602082015290565b5090604051614b08816133b5565b601c81527f4d61746368206e6f7420696e207570636f6d696e672073746174757300000000602082015290565b614b4a9192503d8085833e6118ef81836133d0565b9038614a3856fe9cf9d0a9e86197623accf15d31d5cebf021e24d490ca0088b54f3df7731f10c8e22e6a377139cfe6c09618502e5102d348f5569b7756f31c823305796f6687cca264697066735822122075ece85ea67ff36ad6ba06637706245ba9bd7a35ca92f3a7e96334ba63af812c64736f6c63430008140033",
  "linkReferences": {},
  "deployedLinkReferences": {}
}